{
  "_format": "hh-sol-artifact-1",
  "contractName": "JustGemsStore",
  "sourceName": "contracts/JustGemsStore.sol",
  "abi": [
    {
      "inputs": [
        {
          "internalType": "contract IERC721Burnable",
          "name": "collection",
          "type": "address"
        },
        {
          "internalType": "address",
          "name": "admin",
          "type": "address"
        }
      ],
      "stateMutability": "nonpayable",
      "type": "constructor"
    },
    {
      "inputs": [],
      "name": "InvalidCall",
      "type": "error"
    },
    {
      "anonymous": false,
      "inputs": [
        {
          "indexed": true,
          "internalType": "bytes32",
          "name": "role",
          "type": "bytes32"
        },
        {
          "indexed": true,
          "internalType": "bytes32",
          "name": "previousAdminRole",
          "type": "bytes32"
        },
        {
          "indexed": true,
          "internalType": "bytes32",
          "name": "newAdminRole",
          "type": "bytes32"
        }
      ],
      "name": "RoleAdminChanged",
      "type": "event"
    },
    {
      "anonymous": false,
      "inputs": [
        {
          "indexed": true,
          "internalType": "bytes32",
          "name": "role",
          "type": "bytes32"
        },
        {
          "indexed": true,
          "internalType": "address",
          "name": "account",
          "type": "address"
        },
        {
          "indexed": true,
          "internalType": "address",
          "name": "sender",
          "type": "address"
        }
      ],
      "name": "RoleGranted",
      "type": "event"
    },
    {
      "anonymous": false,
      "inputs": [
        {
          "indexed": true,
          "internalType": "bytes32",
          "name": "role",
          "type": "bytes32"
        },
        {
          "indexed": true,
          "internalType": "address",
          "name": "account",
          "type": "address"
        },
        {
          "indexed": true,
          "internalType": "address",
          "name": "sender",
          "type": "address"
        }
      ],
      "name": "RoleRevoked",
      "type": "event"
    },
    {
      "inputs": [],
      "name": "COLLECTION",
      "outputs": [
        {
          "internalType": "contract IERC721Burnable",
          "name": "",
          "type": "address"
        }
      ],
      "stateMutability": "view",
      "type": "function"
    },
    {
      "inputs": [],
      "name": "DEFAULT_ADMIN_ROLE",
      "outputs": [
        {
          "internalType": "bytes32",
          "name": "",
          "type": "bytes32"
        }
      ],
      "stateMutability": "view",
      "type": "function"
    },
    {
      "inputs": [
        {
          "internalType": "bytes32",
          "name": "role",
          "type": "bytes32"
        }
      ],
      "name": "getRoleAdmin",
      "outputs": [
        {
          "internalType": "bytes32",
          "name": "",
          "type": "bytes32"
        }
      ],
      "stateMutability": "view",
      "type": "function"
    },
    {
      "inputs": [
        {
          "internalType": "bytes32",
          "name": "role",
          "type": "bytes32"
        },
        {
          "internalType": "address",
          "name": "account",
          "type": "address"
        }
      ],
      "name": "grantRole",
      "outputs": [],
      "stateMutability": "nonpayable",
      "type": "function"
    },
    {
      "inputs": [
        {
          "internalType": "bytes32",
          "name": "role",
          "type": "bytes32"
        },
        {
          "internalType": "address",
          "name": "account",
          "type": "address"
        }
      ],
      "name": "hasRole",
      "outputs": [
        {
          "internalType": "bool",
          "name": "",
          "type": "bool"
        }
      ],
      "stateMutability": "view",
      "type": "function"
    },
    {
      "inputs": [
        {
          "internalType": "uint256",
          "name": "tokenId",
          "type": "uint256"
        },
        {
          "internalType": "bytes",
          "name": "proof",
          "type": "bytes"
        }
      ],
      "name": "redeem",
      "outputs": [],
      "stateMutability": "nonpayable",
      "type": "function"
    },
    {
      "inputs": [
        {
          "internalType": "uint256",
          "name": "tokenId",
          "type": "uint256"
        }
      ],
      "name": "redeemed",
      "outputs": [
        {
          "internalType": "address",
          "name": "",
          "type": "address"
        }
      ],
      "stateMutability": "view",
      "type": "function"
    },
    {
      "inputs": [
        {
          "internalType": "bytes32",
          "name": "role",
          "type": "bytes32"
        },
        {
          "internalType": "address",
          "name": "account",
          "type": "address"
        }
      ],
      "name": "renounceRole",
      "outputs": [],
      "stateMutability": "nonpayable",
      "type": "function"
    },
    {
      "inputs": [
        {
          "internalType": "bytes32",
          "name": "role",
          "type": "bytes32"
        },
        {
          "internalType": "address",
          "name": "account",
          "type": "address"
        }
      ],
      "name": "revokeRole",
      "outputs": [],
      "stateMutability": "nonpayable",
      "type": "function"
    },
    {
      "inputs": [
        {
          "internalType": "bytes4",
          "name": "interfaceId",
          "type": "bytes4"
        }
      ],
      "name": "supportsInterface",
      "outputs": [
        {
          "internalType": "bool",
          "name": "",
          "type": "bool"
        }
      ],
      "stateMutability": "view",
      "type": "function"
    }
  ],
  "bytecode": "0x60a060405234801561001057600080fd5b50604051620010ba380380620010ba83398101604081905261003191610112565b61003c60008261004e565b506001600160a01b031660805261014c565b610058828261005c565b5050565b6000828152602081815260408083206001600160a01b038516845290915290205460ff16610058576000828152602081815260408083206001600160a01b03851684529091529020805460ff191660011790556100b63390565b6001600160a01b0316816001600160a01b0316837f2f8788117e7eff1d82e926ec794901d17c78024a50270940304540a733656f0d60405160405180910390a45050565b6001600160a01b038116811461010f57600080fd5b50565b6000806040838503121561012557600080fd5b8251610130816100fa565b6020840151909250610141816100fa565b809150509250929050565b608051610f3d6200017d60003960008181610129015281816103450152818161047f01526105360152610f3d6000f3fe608060405234801561001057600080fd5b506004361061009e5760003560e01c80637ed0f1c1116100665780637ed0f1c11461016357806391d148541461018c578063a217fddf1461019f578063d547741f146101a7578063e77c646d146101ba57600080fd5b806301ffc9a7146100a3578063248a9ca3146100cb5780632f2ff15d146100fc57806336568abe14610111578063697b236514610124575b600080fd5b6100b66100b1366004610c29565b6101cd565b60405190151581526020015b60405180910390f35b6100ee6100d9366004610c53565b60009081526020819052604090206001015490565b6040519081526020016100c2565b61010f61010a366004610c81565b610204565b005b61010f61011f366004610c81565b61022f565b61014b7f000000000000000000000000000000000000000000000000000000000000000081565b6040516001600160a01b0390911681526020016100c2565b61014b610171366004610c53565b6000908152600160205260409020546001600160a01b031690565b6100b661019a366004610c81565b6102b2565b6100ee600081565b61010f6101b5366004610c81565b6102db565b61010f6101c8366004610cc7565b610301565b60006001600160e01b03198216637965db0b60e01b14806101fe57506301ffc9a760e01b6001600160e01b03198316145b92915050565b60008281526020819052604090206001015461022081336105cb565b61022a838361062f565b505050565b6001600160a01b03811633146102a45760405162461bcd60e51b815260206004820152602f60248201527f416363657373436f6e74726f6c3a2063616e206f6e6c792072656e6f756e636560448201526e103937b632b9903337b91039b2b63360891b60648201526084015b60405180910390fd5b6102ae82826106b3565b5050565b6000918252602082815260408084206001600160a01b0393909316845291905290205460ff1690565b6000828152602081905260409020600101546102f781336105cb565b61022a83836106b3565b7f9cf888df9829983a4501c3e5076732bbf523e06c6b31f6ce065f61c2aec2056761032c81336105cb565b6040516331a9108f60e11b8152600481018490526000907f00000000000000000000000000000000000000000000000000000000000000006001600160a01b031690636352211e9060240160206040518083038186803b15801561038f57600080fd5b505afa1580156103a3573d6000803e3d6000fd5b505050506040513d601f19601f820116820180604052508101906103c79190610d82565b6040516572656465656d60d01b60208201526026810186905290915061045d9061045790604601604051602081830303815290604052805190602001206040517f19457468657265756d205369676e6564204d6573736167653a0a3332000000006020820152603c8101829052600090605c01604051602081830303815290604052805190602001209050919050565b84610718565b6040516331a9108f60e11b8152600481018690526001600160a01b03918216917f00000000000000000000000000000000000000000000000000000000000000001690636352211e9060240160206040518083038186803b1580156104c157600080fd5b505afa1580156104d5573d6000803e3d6000fd5b505050506040513d601f19601f820116820180604052508101906104f99190610d82565b6001600160a01b0316146105205760405163574b16a760e11b815260040160405180910390fd5b604051630852cd8d60e31b8152600481018590527f00000000000000000000000000000000000000000000000000000000000000006001600160a01b0316906342966c6890602401600060405180830381600087803b15801561058257600080fd5b505af1158015610596573d6000803e3d6000fd5b5050506000948552506001602052604090932080546001600160a01b0319166001600160a01b03909416939093179092555050565b6105d582826102b2565b6102ae576105ed816001600160a01b0316601461073c565b6105f883602061073c565b604051602001610609929190610dcf565b60408051601f198184030181529082905262461bcd60e51b825261029b91600401610e44565b61063982826102b2565b6102ae576000828152602081815260408083206001600160a01b03851684529091529020805460ff1916600117905561066f3390565b6001600160a01b0316816001600160a01b0316837f2f8788117e7eff1d82e926ec794901d17c78024a50270940304540a733656f0d60405160405180910390a45050565b6106bd82826102b2565b156102ae576000828152602081815260408083206001600160a01b0385168085529252808320805460ff1916905551339285917ff6391f5c32d9c69d2a47ea670b442974b53935d1edc7fd64eb21e047a839171b9190a45050565b600080600061072785856108df565b915091506107348161094f565b509392505050565b6060600061074b836002610e8d565b610756906002610eac565b67ffffffffffffffff81111561076e5761076e610cb1565b6040519080825280601f01601f191660200182016040528015610798576020820181803683370190505b509050600360fc1b816000815181106107b3576107b3610ec4565b60200101906001600160f81b031916908160001a905350600f60fb1b816001815181106107e2576107e2610ec4565b60200101906001600160f81b031916908160001a9053506000610806846002610e8d565b610811906001610eac565b90505b6001811115610889576f181899199a1a9b1b9c1cb0b131b232b360811b85600f166010811061084557610845610ec4565b1a60f81b82828151811061085b5761085b610ec4565b60200101906001600160f81b031916908160001a90535060049490941c9361088281610eda565b9050610814565b5083156108d85760405162461bcd60e51b815260206004820181905260248201527f537472696e67733a20686578206c656e67746820696e73756666696369656e74604482015260640161029b565b9392505050565b6000808251604114156109165760208301516040840151606085015160001a61090a87828585610b0d565b94509450505050610948565b8251604014156109405760208301516040840151610935868383610bfa565b935093505050610948565b506000905060025b9250929050565b600081600481111561096357610963610ef1565b141561096c5750565b600181600481111561098057610980610ef1565b14156109ce5760405162461bcd60e51b815260206004820152601860248201527f45434453413a20696e76616c6964207369676e61747572650000000000000000604482015260640161029b565b60028160048111156109e2576109e2610ef1565b1415610a305760405162461bcd60e51b815260206004820152601f60248201527f45434453413a20696e76616c6964207369676e6174757265206c656e67746800604482015260640161029b565b6003816004811115610a4457610a44610ef1565b1415610a9d5760405162461bcd60e51b815260206004820152602260248201527f45434453413a20696e76616c6964207369676e6174757265202773272076616c604482015261756560f01b606482015260840161029b565b6004816004811115610ab157610ab1610ef1565b1415610b0a5760405162461bcd60e51b815260206004820152602260248201527f45434453413a20696e76616c6964207369676e6174757265202776272076616c604482015261756560f01b606482015260840161029b565b50565b6000807f7fffffffffffffffffffffffffffffff5d576e7357a4501ddfe92f46681b20a0831115610b445750600090506003610bf1565b8460ff16601b14158015610b5c57508460ff16601c14155b15610b6d5750600090506004610bf1565b6040805160008082526020820180845289905260ff881692820192909252606081018690526080810185905260019060a0016020604051602081039080840390855afa158015610bc1573d6000803e3d6000fd5b5050604051601f1901519150506001600160a01b038116610bea57600060019250925050610bf1565b9150600090505b94509492505050565b6000806001600160ff1b03831660ff84901c601b01610c1b87828885610b0d565b935093505050935093915050565b600060208284031215610c3b57600080fd5b81356001600160e01b0319811681146108d857600080fd5b600060208284031215610c6557600080fd5b5035919050565b6001600160a01b0381168114610b0a57600080fd5b60008060408385031215610c9457600080fd5b823591506020830135610ca681610c6c565b809150509250929050565b634e487b7160e01b600052604160045260246000fd5b60008060408385031215610cda57600080fd5b82359150602083013567ffffffffffffffff80821115610cf957600080fd5b818501915085601f830112610d0d57600080fd5b813581811115610d1f57610d1f610cb1565b604051601f8201601f19908116603f01168101908382118183101715610d4757610d47610cb1565b81604052828152886020848701011115610d6057600080fd5b8260208601602083013760006020848301015280955050505050509250929050565b600060208284031215610d9457600080fd5b81516108d881610c6c565b60005b83811015610dba578181015183820152602001610da2565b83811115610dc9576000848401525b50505050565b7f416363657373436f6e74726f6c3a206163636f756e7420000000000000000000815260008351610e07816017850160208801610d9f565b7001034b99036b4b9b9b4b733903937b6329607d1b6017918401918201528351610e38816028840160208801610d9f565b01602801949350505050565b6020815260008251806020840152610e63816040850160208701610d9f565b601f01601f19169190910160400192915050565b634e487b7160e01b600052601160045260246000fd5b6000816000190483118215151615610ea757610ea7610e77565b500290565b60008219821115610ebf57610ebf610e77565b500190565b634e487b7160e01b600052603260045260246000fd5b600081610ee957610ee9610e77565b506000190190565b634e487b7160e01b600052602160045260246000fdfea264697066735822122064825bf04e896c21b4dbdf2d7f32c4a739ad40c685073859d41b6415413ecde564736f6c63430008090033",
  "linkReferences": {},
  "deployedLinkReferences": {}
}