{
  "_format": "hh-sol-artifact-1",
  "contractName": "JustGemsStore",
  "sourceName": "contracts/JustGemsStore.sol",
  "abi": [
    {
      "inputs": [
        {
          "internalType": "contract IERC721Burnable",
          "name": "collection",
          "type": "address"
        },
        {
          "internalType": "address",
          "name": "admin",
          "type": "address"
        }
      ],
      "stateMutability": "nonpayable",
      "type": "constructor"
    },
    {
      "anonymous": false,
      "inputs": [
        {
          "indexed": true,
          "internalType": "bytes32",
          "name": "role",
          "type": "bytes32"
        },
        {
          "indexed": true,
          "internalType": "bytes32",
          "name": "previousAdminRole",
          "type": "bytes32"
        },
        {
          "indexed": true,
          "internalType": "bytes32",
          "name": "newAdminRole",
          "type": "bytes32"
        }
      ],
      "name": "RoleAdminChanged",
      "type": "event"
    },
    {
      "anonymous": false,
      "inputs": [
        {
          "indexed": true,
          "internalType": "bytes32",
          "name": "role",
          "type": "bytes32"
        },
        {
          "indexed": true,
          "internalType": "address",
          "name": "account",
          "type": "address"
        },
        {
          "indexed": true,
          "internalType": "address",
          "name": "sender",
          "type": "address"
        }
      ],
      "name": "RoleGranted",
      "type": "event"
    },
    {
      "anonymous": false,
      "inputs": [
        {
          "indexed": true,
          "internalType": "bytes32",
          "name": "role",
          "type": "bytes32"
        },
        {
          "indexed": true,
          "internalType": "address",
          "name": "account",
          "type": "address"
        },
        {
          "indexed": true,
          "internalType": "address",
          "name": "sender",
          "type": "address"
        }
      ],
      "name": "RoleRevoked",
      "type": "event"
    },
    {
      "inputs": [],
      "name": "COLLECTION",
      "outputs": [
        {
          "internalType": "contract IERC721Burnable",
          "name": "",
          "type": "address"
        }
      ],
      "stateMutability": "view",
      "type": "function"
    },
    {
      "inputs": [],
      "name": "DEFAULT_ADMIN_ROLE",
      "outputs": [
        {
          "internalType": "bytes32",
          "name": "",
          "type": "bytes32"
        }
      ],
      "stateMutability": "view",
      "type": "function"
    },
    {
      "inputs": [
        {
          "internalType": "uint256",
          "name": "tokenId",
          "type": "uint256"
        }
      ],
      "name": "consume",
      "outputs": [],
      "stateMutability": "nonpayable",
      "type": "function"
    },
    {
      "inputs": [
        {
          "internalType": "uint256",
          "name": "tokenId",
          "type": "uint256"
        }
      ],
      "name": "consumed",
      "outputs": [
        {
          "internalType": "address",
          "name": "",
          "type": "address"
        }
      ],
      "stateMutability": "view",
      "type": "function"
    },
    {
      "inputs": [
        {
          "internalType": "bytes32",
          "name": "role",
          "type": "bytes32"
        }
      ],
      "name": "getRoleAdmin",
      "outputs": [
        {
          "internalType": "bytes32",
          "name": "",
          "type": "bytes32"
        }
      ],
      "stateMutability": "view",
      "type": "function"
    },
    {
      "inputs": [
        {
          "internalType": "bytes32",
          "name": "role",
          "type": "bytes32"
        },
        {
          "internalType": "address",
          "name": "account",
          "type": "address"
        }
      ],
      "name": "grantRole",
      "outputs": [],
      "stateMutability": "nonpayable",
      "type": "function"
    },
    {
      "inputs": [
        {
          "internalType": "bytes32",
          "name": "role",
          "type": "bytes32"
        },
        {
          "internalType": "address",
          "name": "account",
          "type": "address"
        }
      ],
      "name": "hasRole",
      "outputs": [
        {
          "internalType": "bool",
          "name": "",
          "type": "bool"
        }
      ],
      "stateMutability": "view",
      "type": "function"
    },
    {
      "inputs": [
        {
          "internalType": "bytes32",
          "name": "role",
          "type": "bytes32"
        },
        {
          "internalType": "address",
          "name": "account",
          "type": "address"
        }
      ],
      "name": "renounceRole",
      "outputs": [],
      "stateMutability": "nonpayable",
      "type": "function"
    },
    {
      "inputs": [
        {
          "internalType": "bytes32",
          "name": "role",
          "type": "bytes32"
        },
        {
          "internalType": "address",
          "name": "account",
          "type": "address"
        }
      ],
      "name": "revokeRole",
      "outputs": [],
      "stateMutability": "nonpayable",
      "type": "function"
    },
    {
      "inputs": [
        {
          "internalType": "bytes4",
          "name": "interfaceId",
          "type": "bytes4"
        }
      ],
      "name": "supportsInterface",
      "outputs": [
        {
          "internalType": "bool",
          "name": "",
          "type": "bool"
        }
      ],
      "stateMutability": "view",
      "type": "function"
    }
  ],
  "bytecode": "0x60a060405234801561001057600080fd5b50604051610a56380380610a5683398101604081905261002f91610110565b61003a60008261004c565b506001600160a01b031660805261014a565b610056828261005a565b5050565b6000828152602081815260408083206001600160a01b038516845290915290205460ff16610056576000828152602081815260408083206001600160a01b03851684529091529020805460ff191660011790556100b43390565b6001600160a01b0316816001600160a01b0316837f2f8788117e7eff1d82e926ec794901d17c78024a50270940304540a733656f0d60405160405180910390a45050565b6001600160a01b038116811461010d57600080fd5b50565b6000806040838503121561012357600080fd5b825161012e816100f8565b602084015190925061013f816100f8565b809150509250929050565b6080516108ea61016c6000396000818161013c01526102f301526108ea6000f3fe608060405234801561001057600080fd5b506004361061009e5760003560e01c8063697b236511610066578063697b23651461013757806391d1485414610176578063a217fddf14610189578063b5213a1714610191578063d547741f146101ba57600080fd5b806301ffc9a7146100a3578063248a9ca3146100cb5780632f2ff15d146100fc57806336568abe14610111578063483f31ab14610124575b600080fd5b6100b66100b13660046106cd565b6101cd565b60405190151581526020015b60405180910390f35b6100ee6100d93660046106f7565b60009081526020819052604090206001015490565b6040519081526020016100c2565b61010f61010a366004610710565b610204565b005b61010f61011f366004610710565b61022f565b61010f6101323660046106f7565b6102b2565b61015e7f000000000000000000000000000000000000000000000000000000000000000081565b6040516001600160a01b0390911681526020016100c2565b6100b6610184366004610710565b61038e565b6100ee600081565b61015e61019f3660046106f7565b6000908152600160205260409020546001600160a01b031690565b61010f6101c8366004610710565b6103b7565b60006001600160e01b03198216637965db0b60e01b14806101fe57506301ffc9a760e01b6001600160e01b03198316145b92915050565b60008281526020819052604090206001015461022081336103dd565b61022a8383610441565b505050565b6001600160a01b03811633146102a45760405162461bcd60e51b815260206004820152602f60248201527f416363657373436f6e74726f6c3a2063616e206f6e6c792072656e6f756e636560448201526e103937b632b9903337b91039b2b63360891b60648201526084015b60405180910390fd5b6102ae82826104c5565b5050565b7f9d56108290ea0bc9c5c59c3ad357dca9d1b29ed7f3ae1443bef2fa2159bdf5e86102dd81336103dd565b604051630852cd8d60e31b8152600481018390527f00000000000000000000000000000000000000000000000000000000000000006001600160a01b0316906342966c6890602401600060405180830381600087803b15801561033f57600080fd5b505af1158015610353573d6000803e3d6000fd5b5050505061035e3390565b60009283526001602052604090922080546001600160a01b0319166001600160a01b039093169290921790915550565b6000918252602082815260408084206001600160a01b0393909316845291905290205460ff1690565b6000828152602081905260409020600101546103d381336103dd565b61022a83836104c5565b6103e7828261038e565b6102ae576103ff816001600160a01b0316601461052a565b61040a83602061052a565b60405160200161041b92919061077c565b60408051601f198184030181529082905262461bcd60e51b825261029b916004016107f1565b61044b828261038e565b6102ae576000828152602081815260408083206001600160a01b03851684529091529020805460ff191660011790556104813390565b6001600160a01b0316816001600160a01b0316837f2f8788117e7eff1d82e926ec794901d17c78024a50270940304540a733656f0d60405160405180910390a45050565b6104cf828261038e565b156102ae576000828152602081815260408083206001600160a01b0385168085529252808320805460ff1916905551339285917ff6391f5c32d9c69d2a47ea670b442974b53935d1edc7fd64eb21e047a839171b9190a45050565b6060600061053983600261083a565b610544906002610859565b67ffffffffffffffff81111561055c5761055c610871565b6040519080825280601f01601f191660200182016040528015610586576020820181803683370190505b509050600360fc1b816000815181106105a1576105a1610887565b60200101906001600160f81b031916908160001a905350600f60fb1b816001815181106105d0576105d0610887565b60200101906001600160f81b031916908160001a90535060006105f484600261083a565b6105ff906001610859565b90505b6001811115610677576f181899199a1a9b1b9c1cb0b131b232b360811b85600f166010811061063357610633610887565b1a60f81b82828151811061064957610649610887565b60200101906001600160f81b031916908160001a90535060049490941c936106708161089d565b9050610602565b5083156106c65760405162461bcd60e51b815260206004820181905260248201527f537472696e67733a20686578206c656e67746820696e73756666696369656e74604482015260640161029b565b9392505050565b6000602082840312156106df57600080fd5b81356001600160e01b0319811681146106c657600080fd5b60006020828403121561070957600080fd5b5035919050565b6000806040838503121561072357600080fd5b8235915060208301356001600160a01b038116811461074157600080fd5b809150509250929050565b60005b8381101561076757818101518382015260200161074f565b83811115610776576000848401525b50505050565b7f416363657373436f6e74726f6c3a206163636f756e74200000000000000000008152600083516107b481601785016020880161074c565b7001034b99036b4b9b9b4b733903937b6329607d1b60179184019182015283516107e581602884016020880161074c565b01602801949350505050565b602081526000825180602084015261081081604085016020870161074c565b601f01601f19169190910160400192915050565b634e487b7160e01b600052601160045260246000fd5b600081600019048311821515161561085457610854610824565b500290565b6000821982111561086c5761086c610824565b500190565b634e487b7160e01b600052604160045260246000fd5b634e487b7160e01b600052603260045260246000fd5b6000816108ac576108ac610824565b50600019019056fea2646970667358221220b1df0528c5f2bd169f7c49f9cad2e865b2d892ab1d4d6c31e7a5e90d5c4c992764736f6c63430008090033",
  "linkReferences": {},
  "deployedLinkReferences": {}
}