{
  "_format": "hh-sol-artifact-1",
  "contractName": "JustGemsData",
  "sourceName": "contracts/JustGemsData.sol",
  "abi": [
    {
      "inputs": [
        {
          "internalType": "address",
          "name": "admin",
          "type": "address"
        }
      ],
      "stateMutability": "nonpayable",
      "type": "constructor"
    },
    {
      "inputs": [],
      "name": "InvalidCall",
      "type": "error"
    },
    {
      "anonymous": false,
      "inputs": [
        {
          "indexed": true,
          "internalType": "bytes32",
          "name": "role",
          "type": "bytes32"
        },
        {
          "indexed": true,
          "internalType": "bytes32",
          "name": "previousAdminRole",
          "type": "bytes32"
        },
        {
          "indexed": true,
          "internalType": "bytes32",
          "name": "newAdminRole",
          "type": "bytes32"
        }
      ],
      "name": "RoleAdminChanged",
      "type": "event"
    },
    {
      "anonymous": false,
      "inputs": [
        {
          "indexed": true,
          "internalType": "bytes32",
          "name": "role",
          "type": "bytes32"
        },
        {
          "indexed": true,
          "internalType": "address",
          "name": "account",
          "type": "address"
        },
        {
          "indexed": true,
          "internalType": "address",
          "name": "sender",
          "type": "address"
        }
      ],
      "name": "RoleGranted",
      "type": "event"
    },
    {
      "anonymous": false,
      "inputs": [
        {
          "indexed": true,
          "internalType": "bytes32",
          "name": "role",
          "type": "bytes32"
        },
        {
          "indexed": true,
          "internalType": "address",
          "name": "account",
          "type": "address"
        },
        {
          "indexed": true,
          "internalType": "address",
          "name": "sender",
          "type": "address"
        }
      ],
      "name": "RoleRevoked",
      "type": "event"
    },
    {
      "inputs": [],
      "name": "DEFAULT_ADMIN_ROLE",
      "outputs": [
        {
          "internalType": "bytes32",
          "name": "",
          "type": "bytes32"
        }
      ],
      "stateMutability": "view",
      "type": "function"
    },
    {
      "inputs": [
        {
          "internalType": "bytes32",
          "name": "role",
          "type": "bytes32"
        }
      ],
      "name": "getRoleAdmin",
      "outputs": [
        {
          "internalType": "bytes32",
          "name": "",
          "type": "bytes32"
        }
      ],
      "stateMutability": "view",
      "type": "function"
    },
    {
      "inputs": [
        {
          "internalType": "bytes32",
          "name": "role",
          "type": "bytes32"
        },
        {
          "internalType": "address",
          "name": "account",
          "type": "address"
        }
      ],
      "name": "grantRole",
      "outputs": [],
      "stateMutability": "nonpayable",
      "type": "function"
    },
    {
      "inputs": [
        {
          "internalType": "bytes32",
          "name": "role",
          "type": "bytes32"
        },
        {
          "internalType": "address",
          "name": "account",
          "type": "address"
        }
      ],
      "name": "hasRole",
      "outputs": [
        {
          "internalType": "bool",
          "name": "",
          "type": "bool"
        }
      ],
      "stateMutability": "view",
      "type": "function"
    },
    {
      "inputs": [
        {
          "internalType": "uint256",
          "name": "tokenId",
          "type": "uint256"
        },
        {
          "internalType": "string",
          "name": "trait",
          "type": "string"
        },
        {
          "internalType": "string",
          "name": "value",
          "type": "string"
        }
      ],
      "name": "hasTrait",
      "outputs": [
        {
          "internalType": "bool",
          "name": "",
          "type": "bool"
        }
      ],
      "stateMutability": "view",
      "type": "function"
    },
    {
      "inputs": [],
      "name": "lastTokenId",
      "outputs": [
        {
          "internalType": "uint256",
          "name": "",
          "type": "uint256"
        }
      ],
      "stateMutability": "view",
      "type": "function"
    },
    {
      "inputs": [
        {
          "internalType": "bytes32",
          "name": "role",
          "type": "bytes32"
        },
        {
          "internalType": "address",
          "name": "account",
          "type": "address"
        }
      ],
      "name": "renounceRole",
      "outputs": [],
      "stateMutability": "nonpayable",
      "type": "function"
    },
    {
      "inputs": [
        {
          "internalType": "bytes32",
          "name": "role",
          "type": "bytes32"
        },
        {
          "internalType": "address",
          "name": "account",
          "type": "address"
        }
      ],
      "name": "revokeRole",
      "outputs": [],
      "stateMutability": "nonpayable",
      "type": "function"
    },
    {
      "inputs": [
        {
          "internalType": "uint256",
          "name": "tokenId",
          "type": "uint256"
        },
        {
          "internalType": "string",
          "name": "uri",
          "type": "string"
        },
        {
          "internalType": "string[]",
          "name": "traits",
          "type": "string[]"
        },
        {
          "internalType": "string[]",
          "name": "values",
          "type": "string[]"
        }
      ],
      "name": "setData",
      "outputs": [],
      "stateMutability": "nonpayable",
      "type": "function"
    },
    {
      "inputs": [
        {
          "internalType": "uint256",
          "name": "tokenId",
          "type": "uint256"
        },
        {
          "internalType": "string[]",
          "name": "traits",
          "type": "string[]"
        },
        {
          "internalType": "string[]",
          "name": "values",
          "type": "string[]"
        }
      ],
      "name": "setTraits",
      "outputs": [],
      "stateMutability": "nonpayable",
      "type": "function"
    },
    {
      "inputs": [
        {
          "internalType": "uint256",
          "name": "tokenId",
          "type": "uint256"
        },
        {
          "internalType": "string",
          "name": "uri",
          "type": "string"
        }
      ],
      "name": "setURI",
      "outputs": [],
      "stateMutability": "nonpayable",
      "type": "function"
    },
    {
      "inputs": [
        {
          "internalType": "bytes4",
          "name": "interfaceId",
          "type": "bytes4"
        }
      ],
      "name": "supportsInterface",
      "outputs": [
        {
          "internalType": "bool",
          "name": "",
          "type": "bool"
        }
      ],
      "stateMutability": "view",
      "type": "function"
    },
    {
      "inputs": [
        {
          "internalType": "uint256",
          "name": "tokenId",
          "type": "uint256"
        }
      ],
      "name": "tokenURI",
      "outputs": [
        {
          "internalType": "string",
          "name": "",
          "type": "string"
        }
      ],
      "stateMutability": "view",
      "type": "function"
    },
    {
      "inputs": [
        {
          "internalType": "uint256",
          "name": "tokenId",
          "type": "uint256"
        },
        {
          "internalType": "string",
          "name": "trait",
          "type": "string"
        }
      ],
      "name": "traitOf",
      "outputs": [
        {
          "internalType": "string",
          "name": "",
          "type": "string"
        }
      ],
      "stateMutability": "view",
      "type": "function"
    }
  ],
  "bytecode": "0x608060405234801561001057600080fd5b506040516111c63803806111c683398101604081905261002f916100ec565b61003a600082610040565b5061011c565b61004a828261004e565b5050565b6000828152602081815260408083206001600160a01b038516845290915290205460ff1661004a576000828152602081815260408083206001600160a01b03851684529091529020805460ff191660011790556100a83390565b6001600160a01b0316816001600160a01b0316837f2f8788117e7eff1d82e926ec794901d17c78024a50270940304540a733656f0d60405160405180910390a45050565b6000602082840312156100fe57600080fd5b81516001600160a01b038116811461011557600080fd5b9392505050565b61109b8061012b6000396000f3fe608060405234801561001057600080fd5b50600436106100ea5760003560e01c806391d148541161008c578063d547741f11610066578063d547741f146101e4578063db4a8790146101f7578063ef93f04e1461020a578063f84ddf0b1461021d57600080fd5b806391d14854146101a9578063a217fddf146101bc578063c87b56dd146101c457600080fd5b80632f2ff15d116100c85780632f2ff15d1461015d57806336568abe146101705780636d5ed10f14610183578063862440e21461019657600080fd5b806301ffc9a7146100ef578063248a9ca314610117578063293d765514610148575b600080fd5b6101026100fd366004610a87565b610225565b60405190151581526020015b60405180910390f35b61013a610125366004610ab1565b60009081526020819052604090206001015490565b60405190815260200161010e565b61015b610156366004610c20565b61025c565b005b61015b61016b366004610c8d565b610344565b61015b61017e366004610c8d565b61036f565b610102610191366004610cc9565b6103f2565b61015b6101a4366004610d2c565b610475565b6101026101b7366004610c8d565b6104d1565b61013a600081565b6101d76101d2366004610ab1565b6104fa565b60405161010e9190610da3565b61015b6101f2366004610c8d565b6105d6565b61015b610205366004610dd6565b6105fc565b6101d7610218366004610d2c565b61063c565b60035461013a565b60006001600160e01b03198216637965db0b60e01b148061025657506301ffc9a760e01b6001600160e01b03198316145b92915050565b7f850d585eb7f024ccee5e68e55f2c26cc72e1e6ee456acf62135757a5eb9d4a1061028781336106fe565b81518351146102a95760405163574b16a760e11b815260040160405180910390fd5b60005b835181101561033d578281815181106102c7576102c7610e68565b6020026020010151600260008781526020019081526020016000208583815181106102f4576102f4610e68565b60200260200101516040516103099190610e7e565b9081526020016040518091039020908051906020019061032a9291906109ee565b508061033581610eb0565b9150506102ac565b5050505050565b60008281526020819052604090206001015461036081336106fe565b61036a8383610762565b505050565b6001600160a01b03811633146103e45760405162461bcd60e51b815260206004820152602f60248201527f416363657373436f6e74726f6c3a2063616e206f6e6c792072656e6f756e636560448201526e103937b632b9903337b91039b2b63360891b60648201526084015b60405180910390fd5b6103ee82826107e6565b5050565b6000816040516020016104059190610e7e565b60408051601f198184030181528282528051602091820120600088815260029092529190209091610437908690610e7e565b90815260200160405180910390206040516020016104559190610f06565b604051602081830303815290604052805190602001201490509392505050565b7f850d585eb7f024ccee5e68e55f2c26cc72e1e6ee456acf62135757a5eb9d4a106104a081336106fe565b600083815260016020908152604090912083516104bf928501906109ee565b5060035483111561036a575050600355565b6000918252602082815260408084206001600160a01b0393909316845291905290205460ff1690565b600081815260016020526040902080546060919061051790610ecb565b151590506105385760405163574b16a760e11b815260040160405180910390fd5b6000828152600160205260409020805461055190610ecb565b80601f016020809104026020016040519081016040528092919081815260200182805461057d90610ecb565b80156105ca5780601f1061059f576101008083540402835291602001916105ca565b820191906000526020600020905b8154815290600101906020018083116105ad57829003601f168201915b50505050509050919050565b6000828152602081905260409020600101546105f281336106fe565b61036a83836107e6565b7f850d585eb7f024ccee5e68e55f2c26cc72e1e6ee456acf62135757a5eb9d4a1061062781336106fe565b6106318585610475565b61033d85848461025c565b6060600260008481526020019081526020016000208260405161065f9190610e7e565b9081526020016040518091039020805461067890610ecb565b80601f01602080910402602001604051908101604052809291908181526020018280546106a490610ecb565b80156106f15780601f106106c6576101008083540402835291602001916106f1565b820191906000526020600020905b8154815290600101906020018083116106d457829003601f168201915b5050505050905092915050565b61070882826104d1565b6103ee57610720816001600160a01b0316601461084b565b61072b83602061084b565b60405160200161073c929190610fa2565b60408051601f198184030181529082905262461bcd60e51b82526103db91600401610da3565b61076c82826104d1565b6103ee576000828152602081815260408083206001600160a01b03851684529091529020805460ff191660011790556107a23390565b6001600160a01b0316816001600160a01b0316837f2f8788117e7eff1d82e926ec794901d17c78024a50270940304540a733656f0d60405160405180910390a45050565b6107f082826104d1565b156103ee576000828152602081815260408083206001600160a01b0385168085529252808320805460ff1916905551339285917ff6391f5c32d9c69d2a47ea670b442974b53935d1edc7fd64eb21e047a839171b9190a45050565b6060600061085a836002611017565b610865906002611036565b67ffffffffffffffff81111561087d5761087d610aca565b6040519080825280601f01601f1916602001820160405280156108a7576020820181803683370190505b509050600360fc1b816000815181106108c2576108c2610e68565b60200101906001600160f81b031916908160001a905350600f60fb1b816001815181106108f1576108f1610e68565b60200101906001600160f81b031916908160001a9053506000610915846002611017565b610920906001611036565b90505b6001811115610998576f181899199a1a9b1b9c1cb0b131b232b360811b85600f166010811061095457610954610e68565b1a60f81b82828151811061096a5761096a610e68565b60200101906001600160f81b031916908160001a90535060049490941c936109918161104e565b9050610923565b5083156109e75760405162461bcd60e51b815260206004820181905260248201527f537472696e67733a20686578206c656e67746820696e73756666696369656e7460448201526064016103db565b9392505050565b8280546109fa90610ecb565b90600052602060002090601f016020900481019282610a1c5760008555610a62565b82601f10610a3557805160ff1916838001178555610a62565b82800160010185558215610a62579182015b82811115610a62578251825591602001919060010190610a47565b50610a6e929150610a72565b5090565b5b80821115610a6e5760008155600101610a73565b600060208284031215610a9957600080fd5b81356001600160e01b0319811681146109e757600080fd5b600060208284031215610ac357600080fd5b5035919050565b634e487b7160e01b600052604160045260246000fd5b604051601f8201601f1916810167ffffffffffffffff81118282101715610b0957610b09610aca565b604052919050565b600082601f830112610b2257600080fd5b813567ffffffffffffffff811115610b3c57610b3c610aca565b610b4f601f8201601f1916602001610ae0565b818152846020838601011115610b6457600080fd5b816020850160208301376000918101602001919091529392505050565b600082601f830112610b9257600080fd5b8135602067ffffffffffffffff80831115610baf57610baf610aca565b8260051b610bbe838201610ae0565b9384528581018301938381019088861115610bd857600080fd5b84880192505b85831015610c1457823584811115610bf65760008081fd5b610c048a87838c0101610b11565b8352509184019190840190610bde565b98975050505050505050565b600080600060608486031215610c3557600080fd5b83359250602084013567ffffffffffffffff80821115610c5457600080fd5b610c6087838801610b81565b93506040860135915080821115610c7657600080fd5b50610c8386828701610b81565b9150509250925092565b60008060408385031215610ca057600080fd5b8235915060208301356001600160a01b0381168114610cbe57600080fd5b809150509250929050565b600080600060608486031215610cde57600080fd5b83359250602084013567ffffffffffffffff80821115610cfd57600080fd5b610d0987838801610b11565b93506040860135915080821115610d1f57600080fd5b50610c8386828701610b11565b60008060408385031215610d3f57600080fd5b82359150602083013567ffffffffffffffff811115610d5d57600080fd5b610d6985828601610b11565b9150509250929050565b60005b83811015610d8e578181015183820152602001610d76565b83811115610d9d576000848401525b50505050565b6020815260008251806020840152610dc2816040850160208701610d73565b601f01601f19169190910160400192915050565b60008060008060808587031215610dec57600080fd5b84359350602085013567ffffffffffffffff80821115610e0b57600080fd5b610e1788838901610b11565b94506040870135915080821115610e2d57600080fd5b610e3988838901610b81565b93506060870135915080821115610e4f57600080fd5b50610e5c87828801610b81565b91505092959194509250565b634e487b7160e01b600052603260045260246000fd5b60008251610e90818460208701610d73565b9190910192915050565b634e487b7160e01b600052601160045260246000fd5b6000600019821415610ec457610ec4610e9a565b5060010190565b600181811c90821680610edf57607f821691505b60208210811415610f0057634e487b7160e01b600052602260045260246000fd5b50919050565b600080835481600182811c915080831680610f2257607f831692505b6020808410821415610f4257634e487b7160e01b86526022600452602486fd5b818015610f565760018114610f6757610f94565b60ff19861689528489019650610f94565b60008a81526020902060005b86811015610f8c5781548b820152908501908301610f73565b505084890196505b509498975050505050505050565b7f416363657373436f6e74726f6c3a206163636f756e7420000000000000000000815260008351610fda816017850160208801610d73565b7001034b99036b4b9b9b4b733903937b6329607d1b601791840191820152835161100b816028840160208801610d73565b01602801949350505050565b600081600019048311821515161561103157611031610e9a565b500290565b6000821982111561104957611049610e9a565b500190565b60008161105d5761105d610e9a565b50600019019056fea26469706673582212208e8ea6fb3d0ee88ccf2bd4a70f0c035b2dce08798f934db648fd51e6f03b8da664736f6c63430008090033",
  "linkReferences": {},
  "deployedLinkReferences": {}
}