{
  "_format": "hh-sol-artifact-1",
  "contractName": "JustGemsIndex",
  "sourceName": "contracts/JustGemsIndex.sol",
  "abi": [
    {
      "inputs": [
        {
          "internalType": "address",
          "name": "admin",
          "type": "address"
        }
      ],
      "stateMutability": "nonpayable",
      "type": "constructor"
    },
    {
      "inputs": [],
      "name": "InvalidCall",
      "type": "error"
    },
    {
      "anonymous": false,
      "inputs": [
        {
          "indexed": true,
          "internalType": "bytes32",
          "name": "role",
          "type": "bytes32"
        },
        {
          "indexed": true,
          "internalType": "bytes32",
          "name": "previousAdminRole",
          "type": "bytes32"
        },
        {
          "indexed": true,
          "internalType": "bytes32",
          "name": "newAdminRole",
          "type": "bytes32"
        }
      ],
      "name": "RoleAdminChanged",
      "type": "event"
    },
    {
      "anonymous": false,
      "inputs": [
        {
          "indexed": true,
          "internalType": "bytes32",
          "name": "role",
          "type": "bytes32"
        },
        {
          "indexed": true,
          "internalType": "address",
          "name": "account",
          "type": "address"
        },
        {
          "indexed": true,
          "internalType": "address",
          "name": "sender",
          "type": "address"
        }
      ],
      "name": "RoleGranted",
      "type": "event"
    },
    {
      "anonymous": false,
      "inputs": [
        {
          "indexed": true,
          "internalType": "bytes32",
          "name": "role",
          "type": "bytes32"
        },
        {
          "indexed": true,
          "internalType": "address",
          "name": "account",
          "type": "address"
        },
        {
          "indexed": true,
          "internalType": "address",
          "name": "sender",
          "type": "address"
        }
      ],
      "name": "RoleRevoked",
      "type": "event"
    },
    {
      "inputs": [],
      "name": "DEFAULT_ADMIN_ROLE",
      "outputs": [
        {
          "internalType": "bytes32",
          "name": "",
          "type": "bytes32"
        }
      ],
      "stateMutability": "view",
      "type": "function"
    },
    {
      "inputs": [
        {
          "internalType": "bytes32",
          "name": "role",
          "type": "bytes32"
        }
      ],
      "name": "getRoleAdmin",
      "outputs": [
        {
          "internalType": "bytes32",
          "name": "",
          "type": "bytes32"
        }
      ],
      "stateMutability": "view",
      "type": "function"
    },
    {
      "inputs": [
        {
          "internalType": "bytes32",
          "name": "role",
          "type": "bytes32"
        },
        {
          "internalType": "address",
          "name": "account",
          "type": "address"
        }
      ],
      "name": "grantRole",
      "outputs": [],
      "stateMutability": "nonpayable",
      "type": "function"
    },
    {
      "inputs": [
        {
          "internalType": "bytes32",
          "name": "role",
          "type": "bytes32"
        },
        {
          "internalType": "address",
          "name": "account",
          "type": "address"
        }
      ],
      "name": "hasRole",
      "outputs": [
        {
          "internalType": "bool",
          "name": "",
          "type": "bool"
        }
      ],
      "stateMutability": "view",
      "type": "function"
    },
    {
      "inputs": [
        {
          "internalType": "bytes32",
          "name": "role",
          "type": "bytes32"
        },
        {
          "internalType": "address",
          "name": "account",
          "type": "address"
        }
      ],
      "name": "renounceRole",
      "outputs": [],
      "stateMutability": "nonpayable",
      "type": "function"
    },
    {
      "inputs": [
        {
          "internalType": "bytes32",
          "name": "role",
          "type": "bytes32"
        },
        {
          "internalType": "address",
          "name": "account",
          "type": "address"
        }
      ],
      "name": "revokeRole",
      "outputs": [],
      "stateMutability": "nonpayable",
      "type": "function"
    },
    {
      "inputs": [
        {
          "internalType": "contract IERC20",
          "name": "token",
          "type": "address"
        },
        {
          "internalType": "uint256",
          "name": "fromTokenId",
          "type": "uint256"
        },
        {
          "internalType": "uint256",
          "name": "toTokenId",
          "type": "uint256"
        },
        {
          "internalType": "string",
          "name": "trait",
          "type": "string"
        },
        {
          "internalType": "string",
          "name": "value",
          "type": "string"
        }
      ],
      "name": "search",
      "outputs": [
        {
          "components": [
            {
              "internalType": "string",
              "name": "uri",
              "type": "string"
            },
            {
              "internalType": "uint256",
              "name": "price",
              "type": "uint256"
            },
            {
              "internalType": "bool",
              "name": "minted",
              "type": "bool"
            }
          ],
          "internalType": "struct JustGemsIndex.Token[]",
          "name": "",
          "type": "tuple[]"
        }
      ],
      "stateMutability": "view",
      "type": "function"
    },
    {
      "inputs": [
        {
          "internalType": "uint256",
          "name": "fromTokenId",
          "type": "uint256"
        },
        {
          "internalType": "uint256",
          "name": "toTokenId",
          "type": "uint256"
        },
        {
          "internalType": "string",
          "name": "trait",
          "type": "string"
        },
        {
          "internalType": "string",
          "name": "value",
          "type": "string"
        }
      ],
      "name": "search",
      "outputs": [
        {
          "components": [
            {
              "internalType": "string",
              "name": "uri",
              "type": "string"
            },
            {
              "internalType": "uint256",
              "name": "price",
              "type": "uint256"
            },
            {
              "internalType": "bool",
              "name": "minted",
              "type": "bool"
            }
          ],
          "internalType": "struct JustGemsIndex.Token[]",
          "name": "",
          "type": "tuple[]"
        }
      ],
      "stateMutability": "view",
      "type": "function"
    },
    {
      "inputs": [
        {
          "internalType": "uint256",
          "name": "fromTokenId",
          "type": "uint256"
        },
        {
          "internalType": "uint256",
          "name": "toTokenId",
          "type": "uint256"
        },
        {
          "internalType": "string[]",
          "name": "traits",
          "type": "string[]"
        },
        {
          "internalType": "string[]",
          "name": "values",
          "type": "string[]"
        }
      ],
      "name": "search",
      "outputs": [
        {
          "components": [
            {
              "internalType": "string",
              "name": "uri",
              "type": "string"
            },
            {
              "internalType": "uint256",
              "name": "price",
              "type": "uint256"
            },
            {
              "internalType": "bool",
              "name": "minted",
              "type": "bool"
            }
          ],
          "internalType": "struct JustGemsIndex.Token[]",
          "name": "",
          "type": "tuple[]"
        }
      ],
      "stateMutability": "view",
      "type": "function"
    },
    {
      "inputs": [
        {
          "internalType": "contract IERC20",
          "name": "token",
          "type": "address"
        },
        {
          "internalType": "uint256",
          "name": "fromTokenId",
          "type": "uint256"
        },
        {
          "internalType": "uint256",
          "name": "toTokenId",
          "type": "uint256"
        },
        {
          "internalType": "string[]",
          "name": "traits",
          "type": "string[]"
        },
        {
          "internalType": "string[]",
          "name": "values",
          "type": "string[]"
        }
      ],
      "name": "search",
      "outputs": [
        {
          "components": [
            {
              "internalType": "string",
              "name": "uri",
              "type": "string"
            },
            {
              "internalType": "uint256",
              "name": "price",
              "type": "uint256"
            },
            {
              "internalType": "bool",
              "name": "minted",
              "type": "bool"
            }
          ],
          "internalType": "struct JustGemsIndex.Token[]",
          "name": "",
          "type": "tuple[]"
        }
      ],
      "stateMutability": "view",
      "type": "function"
    },
    {
      "inputs": [
        {
          "internalType": "contract IERC721Data",
          "name": "metadata",
          "type": "address"
        }
      ],
      "name": "setMetadata",
      "outputs": [],
      "stateMutability": "nonpayable",
      "type": "function"
    },
    {
      "inputs": [
        {
          "internalType": "contract IERC721Saleable",
          "name": "saleable",
          "type": "address"
        }
      ],
      "name": "setSaleable",
      "outputs": [],
      "stateMutability": "nonpayable",
      "type": "function"
    },
    {
      "inputs": [
        {
          "internalType": "bytes4",
          "name": "interfaceId",
          "type": "bytes4"
        }
      ],
      "name": "supportsInterface",
      "outputs": [
        {
          "internalType": "bool",
          "name": "",
          "type": "bool"
        }
      ],
      "stateMutability": "view",
      "type": "function"
    }
  ],
  "bytecode": "0x60806040523480156200001157600080fd5b506040516200187e3803806200187e8339810160408190526200003491620000f8565b6200004160008262000048565b506200012a565b62000054828262000058565b5050565b6000828152602081815260408083206001600160a01b038516845290915290205460ff1662000054576000828152602081815260408083206001600160a01b03851684529091529020805460ff19166001179055620000b43390565b6001600160a01b0316816001600160a01b0316837f2f8788117e7eff1d82e926ec794901d17c78024a50270940304540a733656f0d60405160405180910390a45050565b6000602082840312156200010b57600080fd5b81516001600160a01b03811681146200012357600080fd5b9392505050565b611744806200013a6000396000f3fe608060405234801561001057600080fd5b50600436106100cf5760003560e01c806391d148541161008c578063d547741f11610066578063d547741f146101b6578063e18693c0146101c9578063f3cb8385146101dc578063f5bad067146101ef57600080fd5b806391d1485414610188578063a217fddf1461019b578063a2420c68146101a357600080fd5b806301ffc9a7146100d4578063248a9ca3146100fc5780632f2ff15d1461012d57806336568abe1461014257806346c24c6f146101555780637e87ddd214610168575b600080fd5b6100e76100e236600461102c565b610202565b60405190151581526020015b60405180910390f35b61011f61010a366004611056565b60009081526020819052604090206001015490565b6040519081526020016100f3565b61014061013b366004611087565b610239565b005b610140610150366004611087565b610264565b6101406101633660046110b7565b6102e7565b61017b610176366004611199565b610335565b6040516100f3919061127f565b6100e7610196366004611087565b610359565b61011f600081565b61017b6101b1366004611302565b610382565b6101406101c4366004611087565b6103a4565b61017b6101d7366004611418565b6103ca565b6101406101ea3660046110b7565b6106af565b61017b6101fd366004611483565b6106fd565b60006001600160e01b03198216637965db0b60e01b148061023357506301ffc9a760e01b6001600160e01b03198316145b92915050565b60008281526020819052604090206001015461025581336109f7565b61025f8383610a5b565b505050565b6001600160a01b03811633146102d95760405162461bcd60e51b815260206004820152602f60248201527f416363657373436f6e74726f6c3a2063616e206f6e6c792072656e6f756e636560448201526e103937b632b9903337b91039b2b63360891b60648201526084015b60405180910390fd5b6102e38282610adf565b5050565b7f850d585eb7f024ccee5e68e55f2c26cc72e1e6ee456acf62135757a5eb9d4a1061031281336109f7565b50600280546001600160a01b0319166001600160a01b0392909216919091179055565b606061034f86868661034687610b44565b6101fd87610b44565b9695505050505050565b6000918252602082815260408084206001600160a01b0393909316845291905290205460ff1690565b606061039b858561039286610b44565b6101d786610b44565b95945050505050565b6000828152602081905260409020600101546103c081336109f7565b61025f8383610adf565b606060006103da86868686610b9b565b90506000815167ffffffffffffffff8111156103f8576103f86110d4565b60405190808252806020026020018201604052801561044f57816020015b61043c604051806060016040528060608152602001600081526020016000151581525090565b8152602001906001900390816104165790505b50905060005b82518110156106a4576040805160608101909152600154845182916001600160a01b03169063c87b56dd9087908690811061049257610492611500565b60200260200101516040518263ffffffff1660e01b81526004016104b891815260200190565b60006040518083038186803b1580156104d057600080fd5b505afa1580156104e4573d6000803e3d6000fd5b505050506040513d6000823e601f3d908101601f1916820160405261050c9190810190611516565b8152602001600260009054906101000a90046001600160a01b03166001600160a01b031663b9186d7d86858151811061054757610547611500565b60200260200101516040518263ffffffff1660e01b815260040161056d91815260200190565b60206040518083038186803b15801561058557600080fd5b505afa158015610599573d6000803e3d6000fd5b505050506040513d601f19601f820116820180604052508101906105bd9190611584565b815260025485516020909201916000916001600160a01b031690637dc0bf3f908890879081106105ef576105ef611500565b60200260200101516040518263ffffffff1660e01b815260040161061591815260200190565b60206040518083038186803b15801561062d57600080fd5b505afa158015610641573d6000803e3d6000fd5b505050506040513d601f19601f82011682018060405250810190610665919061159d565b6001600160a01b031614159052825183908390811061068657610686611500565b6020026020010181905250808061069c906115d0565b915050610455565b509695505050505050565b7f850d585eb7f024ccee5e68e55f2c26cc72e1e6ee456acf62135757a5eb9d4a106106da81336109f7565b50600180546001600160a01b0319166001600160a01b0392909216919091179055565b6060600061070d86868686610b9b565b90506000815167ffffffffffffffff81111561072b5761072b6110d4565b60405190808252806020026020018201604052801561078257816020015b61076f604051806060016040528060608152602001600081526020016000151581525090565b8152602001906001900390816107495790505b50905060005b82518110156109eb576040805160608101909152600154845182916001600160a01b03169063c87b56dd908790869081106107c5576107c5611500565b60200260200101516040518263ffffffff1660e01b81526004016107eb91815260200190565b60006040518083038186803b15801561080357600080fd5b505afa158015610817573d6000803e3d6000fd5b505050506040513d6000823e601f3d908101601f1916820160405261083f9190810190611516565b8152602001600260009054906101000a90046001600160a01b03166001600160a01b031663fc3d545d8c87868151811061087b5761087b611500565b60200260200101516040518363ffffffff1660e01b81526004016108b49291906001600160a01b03929092168252602082015260400190565b60206040518083038186803b1580156108cc57600080fd5b505afa1580156108e0573d6000803e3d6000fd5b505050506040513d601f19601f820116820180604052508101906109049190611584565b815260025485516020909201916000916001600160a01b031690637dc0bf3f9088908790811061093657610936611500565b60200260200101516040518263ffffffff1660e01b815260040161095c91815260200190565b60206040518083038186803b15801561097457600080fd5b505afa158015610988573d6000803e3d6000fd5b505050506040513d601f19601f820116820180604052508101906109ac919061159d565b6001600160a01b03161415905282518390839081106109cd576109cd611500565b602002602001018190525080806109e3906115d0565b915050610788565b50979650505050505050565b610a018282610359565b6102e357610a19816001600160a01b03166014610d3b565b610a24836020610d3b565b604051602001610a359291906115eb565b60408051601f198184030181529082905262461bcd60e51b82526102d091600401611660565b610a658282610359565b6102e3576000828152602081815260408083206001600160a01b03851684529091529020805460ff19166001179055610a9b3390565b6001600160a01b0316816001600160a01b0316837f2f8788117e7eff1d82e926ec794901d17c78024a50270940304540a733656f0d60405160405180910390a45050565b610ae98282610359565b156102e3576000828152602081815260408083206001600160a01b0385168085529252808320805460ff1916905551339285917ff6391f5c32d9c69d2a47ea670b442974b53935d1edc7fd64eb21e047a839171b9190a45050565b60408051600180825281830190925260609160009190816020015b6060815260200190600190039081610b5f5790505090508281600081518110610b8a57610b8a611500565b602090810291909101015292915050565b60606000610bab86868686610ede565b67ffffffffffffffff811115610bc357610bc36110d4565b604051908082528060200260200182016040528015610bec578160200160208202803683370190505b5090506000865b868111610d2f576000805b8751811015610ce75760015488516001600160a01b0390911690636d5ed10f9085908b9085908110610c3257610c32611500565b60200260200101518a8581518110610c4c57610c4c611500565b60200260200101516040518463ffffffff1660e01b8152600401610c7293929190611673565b60206040518083038186803b158015610c8a57600080fd5b505afa158015610c9e573d6000803e3d6000fd5b505050506040513d601f19601f82011682018060405250810190610cc2919061169e565b15610cd55781610cd1816115d0565b9250505b80610cdf816115d0565b915050610bfe565b508651811415610d1c57818484610cfd816115d0565b955081518110610d0f57610d0f611500565b6020026020010181815250505b5080610d27816115d0565b915050610bf3565b50909695505050505050565b60606000610d4a8360026116c0565b610d559060026116df565b67ffffffffffffffff811115610d6d57610d6d6110d4565b6040519080825280601f01601f191660200182016040528015610d97576020820181803683370190505b509050600360fc1b81600081518110610db257610db2611500565b60200101906001600160f81b031916908160001a905350600f60fb1b81600181518110610de157610de1611500565b60200101906001600160f81b031916908160001a9053506000610e058460026116c0565b610e109060016116df565b90505b6001811115610e88576f181899199a1a9b1b9c1cb0b131b232b360811b85600f1660108110610e4457610e44611500565b1a60f81b828281518110610e5a57610e5a611500565b60200101906001600160f81b031916908160001a90535060049490941c93610e81816116f7565b9050610e13565b508315610ed75760405162461bcd60e51b815260206004820181905260248201527f537472696e67733a20686578206c656e67746820696e73756666696369656e7460448201526064016102d0565b9392505050565b60008151835114610f025760405163574b16a760e11b815260040160405180910390fd5b845b848111611023576000805b8551811015610ff85760015486516001600160a01b0390911690636d5ed10f908590899085908110610f4357610f43611500565b6020026020010151888581518110610f5d57610f5d611500565b60200260200101516040518463ffffffff1660e01b8152600401610f8393929190611673565b60206040518083038186803b158015610f9b57600080fd5b505afa158015610faf573d6000803e3d6000fd5b505050506040513d601f19601f82011682018060405250810190610fd3919061169e565b15610fe65781610fe2816115d0565b9250505b80610ff0816115d0565b915050610f0f565b508451811415611010578261100c816115d0565b9350505b508061101b816115d0565b915050610f04565b50949350505050565b60006020828403121561103e57600080fd5b81356001600160e01b031981168114610ed757600080fd5b60006020828403121561106857600080fd5b5035919050565b6001600160a01b038116811461108457600080fd5b50565b6000806040838503121561109a57600080fd5b8235915060208301356110ac8161106f565b809150509250929050565b6000602082840312156110c957600080fd5b8135610ed78161106f565b634e487b7160e01b600052604160045260246000fd5b604051601f8201601f1916810167ffffffffffffffff81118282101715611113576111136110d4565b604052919050565b600067ffffffffffffffff821115611135576111356110d4565b50601f01601f191660200190565b600082601f83011261115457600080fd5b81356111676111628261111b565b6110ea565b81815284602083860101111561117c57600080fd5b816020850160208301376000918101602001919091529392505050565b600080600080600060a086880312156111b157600080fd5b85356111bc8161106f565b94506020860135935060408601359250606086013567ffffffffffffffff808211156111e757600080fd5b6111f389838a01611143565b9350608088013591508082111561120957600080fd5b5061121688828901611143565b9150509295509295909350565b60005b8381101561123e578181015183820152602001611226565b8381111561124d576000848401525b50505050565b6000815180845261126b816020860160208601611223565b601f01601f19169290920160200192915050565b60006020808301818452808551808352604092508286019150828160051b87010184880160005b838110156112f457603f198984030185528151606081518186526112cc82870182611253565b838b0151878c01529289015115159589019590955250948701949250908601906001016112a6565b509098975050505050505050565b6000806000806080858703121561131857600080fd5b8435935060208501359250604085013567ffffffffffffffff8082111561133e57600080fd5b61134a88838901611143565b9350606087013591508082111561136057600080fd5b5061136d87828801611143565b91505092959194509250565b600082601f83011261138a57600080fd5b8135602067ffffffffffffffff808311156113a7576113a76110d4565b8260051b6113b68382016110ea565b93845285810183019383810190888611156113d057600080fd5b84880192505b8583101561140c578235848111156113ee5760008081fd5b6113fc8a87838c0101611143565b83525091840191908401906113d6565b98975050505050505050565b6000806000806080858703121561142e57600080fd5b8435935060208501359250604085013567ffffffffffffffff8082111561145457600080fd5b61146088838901611379565b9350606087013591508082111561147657600080fd5b5061136d87828801611379565b600080600080600060a0868803121561149b57600080fd5b85356114a68161106f565b94506020860135935060408601359250606086013567ffffffffffffffff808211156114d157600080fd5b6114dd89838a01611379565b935060808801359150808211156114f357600080fd5b5061121688828901611379565b634e487b7160e01b600052603260045260246000fd5b60006020828403121561152857600080fd5b815167ffffffffffffffff81111561153f57600080fd5b8201601f8101841361155057600080fd5b805161155e6111628261111b565b81815285602083850101111561157357600080fd5b61039b826020830160208601611223565b60006020828403121561159657600080fd5b5051919050565b6000602082840312156115af57600080fd5b8151610ed78161106f565b634e487b7160e01b600052601160045260246000fd5b60006000198214156115e4576115e46115ba565b5060010190565b7f416363657373436f6e74726f6c3a206163636f756e7420000000000000000000815260008351611623816017850160208801611223565b7001034b99036b4b9b9b4b733903937b6329607d1b6017918401918201528351611654816028840160208801611223565b01602801949350505050565b602081526000610ed76020830184611253565b83815260606020820152600061168c6060830185611253565b828103604084015261034f8185611253565b6000602082840312156116b057600080fd5b81518015158114610ed757600080fd5b60008160001904831182151516156116da576116da6115ba565b500290565b600082198211156116f2576116f26115ba565b500190565b600081611706576117066115ba565b50600019019056fea26469706673582212201d8f78a55448cdee603c05f89c4cd5c608f69b7f5eacdf4fdac6b377da9763b164736f6c63430008090033",
  "linkReferences": {},
  "deployedLinkReferences": {}
}