{
  "_format": "hh-sol-artifact-1",
  "contractName": "JustGemsIndex",
  "sourceName": "contracts/JustGemsIndex.sol",
  "abi": [
    {
      "inputs": [
        {
          "internalType": "address",
          "name": "admin",
          "type": "address"
        }
      ],
      "stateMutability": "nonpayable",
      "type": "constructor"
    },
    {
      "inputs": [],
      "name": "InvalidCall",
      "type": "error"
    },
    {
      "anonymous": false,
      "inputs": [
        {
          "indexed": true,
          "internalType": "bytes32",
          "name": "role",
          "type": "bytes32"
        },
        {
          "indexed": true,
          "internalType": "bytes32",
          "name": "previousAdminRole",
          "type": "bytes32"
        },
        {
          "indexed": true,
          "internalType": "bytes32",
          "name": "newAdminRole",
          "type": "bytes32"
        }
      ],
      "name": "RoleAdminChanged",
      "type": "event"
    },
    {
      "anonymous": false,
      "inputs": [
        {
          "indexed": true,
          "internalType": "bytes32",
          "name": "role",
          "type": "bytes32"
        },
        {
          "indexed": true,
          "internalType": "address",
          "name": "account",
          "type": "address"
        },
        {
          "indexed": true,
          "internalType": "address",
          "name": "sender",
          "type": "address"
        }
      ],
      "name": "RoleGranted",
      "type": "event"
    },
    {
      "anonymous": false,
      "inputs": [
        {
          "indexed": true,
          "internalType": "bytes32",
          "name": "role",
          "type": "bytes32"
        },
        {
          "indexed": true,
          "internalType": "address",
          "name": "account",
          "type": "address"
        },
        {
          "indexed": true,
          "internalType": "address",
          "name": "sender",
          "type": "address"
        }
      ],
      "name": "RoleRevoked",
      "type": "event"
    },
    {
      "inputs": [],
      "name": "DEFAULT_ADMIN_ROLE",
      "outputs": [
        {
          "internalType": "bytes32",
          "name": "",
          "type": "bytes32"
        }
      ],
      "stateMutability": "view",
      "type": "function"
    },
    {
      "inputs": [
        {
          "internalType": "uint256",
          "name": "tokenId",
          "type": "uint256"
        }
      ],
      "name": "detail",
      "outputs": [
        {
          "components": [
            {
              "internalType": "uint256",
              "name": "id",
              "type": "uint256"
            },
            {
              "internalType": "string",
              "name": "uri",
              "type": "string"
            },
            {
              "internalType": "uint256",
              "name": "price",
              "type": "uint256"
            },
            {
              "internalType": "bool",
              "name": "minted",
              "type": "bool"
            }
          ],
          "internalType": "struct JustGemsIndex.Token",
          "name": "",
          "type": "tuple"
        }
      ],
      "stateMutability": "view",
      "type": "function"
    },
    {
      "inputs": [
        {
          "internalType": "contract IERC20",
          "name": "token",
          "type": "address"
        },
        {
          "internalType": "uint256",
          "name": "tokenId",
          "type": "uint256"
        }
      ],
      "name": "detail",
      "outputs": [
        {
          "components": [
            {
              "internalType": "uint256",
              "name": "id",
              "type": "uint256"
            },
            {
              "internalType": "string",
              "name": "uri",
              "type": "string"
            },
            {
              "internalType": "uint256",
              "name": "price",
              "type": "uint256"
            },
            {
              "internalType": "bool",
              "name": "minted",
              "type": "bool"
            }
          ],
          "internalType": "struct JustGemsIndex.Token",
          "name": "",
          "type": "tuple"
        }
      ],
      "stateMutability": "view",
      "type": "function"
    },
    {
      "inputs": [
        {
          "internalType": "bytes32",
          "name": "role",
          "type": "bytes32"
        }
      ],
      "name": "getRoleAdmin",
      "outputs": [
        {
          "internalType": "bytes32",
          "name": "",
          "type": "bytes32"
        }
      ],
      "stateMutability": "view",
      "type": "function"
    },
    {
      "inputs": [
        {
          "internalType": "bytes32",
          "name": "role",
          "type": "bytes32"
        },
        {
          "internalType": "address",
          "name": "account",
          "type": "address"
        }
      ],
      "name": "grantRole",
      "outputs": [],
      "stateMutability": "nonpayable",
      "type": "function"
    },
    {
      "inputs": [
        {
          "internalType": "bytes32",
          "name": "role",
          "type": "bytes32"
        },
        {
          "internalType": "address",
          "name": "account",
          "type": "address"
        }
      ],
      "name": "hasRole",
      "outputs": [
        {
          "internalType": "bool",
          "name": "",
          "type": "bool"
        }
      ],
      "stateMutability": "view",
      "type": "function"
    },
    {
      "inputs": [
        {
          "internalType": "bytes32",
          "name": "role",
          "type": "bytes32"
        },
        {
          "internalType": "address",
          "name": "account",
          "type": "address"
        }
      ],
      "name": "renounceRole",
      "outputs": [],
      "stateMutability": "nonpayable",
      "type": "function"
    },
    {
      "inputs": [
        {
          "internalType": "bytes32",
          "name": "role",
          "type": "bytes32"
        },
        {
          "internalType": "address",
          "name": "account",
          "type": "address"
        }
      ],
      "name": "revokeRole",
      "outputs": [],
      "stateMutability": "nonpayable",
      "type": "function"
    },
    {
      "inputs": [
        {
          "internalType": "contract IERC20",
          "name": "token",
          "type": "address"
        },
        {
          "internalType": "uint256",
          "name": "fromTokenId",
          "type": "uint256"
        },
        {
          "internalType": "uint256",
          "name": "toTokenId",
          "type": "uint256"
        },
        {
          "internalType": "string",
          "name": "trait",
          "type": "string"
        },
        {
          "internalType": "string",
          "name": "value",
          "type": "string"
        }
      ],
      "name": "search",
      "outputs": [
        {
          "components": [
            {
              "internalType": "uint256",
              "name": "id",
              "type": "uint256"
            },
            {
              "internalType": "string",
              "name": "uri",
              "type": "string"
            },
            {
              "internalType": "uint256",
              "name": "price",
              "type": "uint256"
            },
            {
              "internalType": "bool",
              "name": "minted",
              "type": "bool"
            }
          ],
          "internalType": "struct JustGemsIndex.Token[]",
          "name": "",
          "type": "tuple[]"
        }
      ],
      "stateMutability": "view",
      "type": "function"
    },
    {
      "inputs": [
        {
          "internalType": "uint256",
          "name": "fromTokenId",
          "type": "uint256"
        },
        {
          "internalType": "uint256",
          "name": "toTokenId",
          "type": "uint256"
        },
        {
          "internalType": "string",
          "name": "trait",
          "type": "string"
        },
        {
          "internalType": "string",
          "name": "value",
          "type": "string"
        }
      ],
      "name": "search",
      "outputs": [
        {
          "components": [
            {
              "internalType": "uint256",
              "name": "id",
              "type": "uint256"
            },
            {
              "internalType": "string",
              "name": "uri",
              "type": "string"
            },
            {
              "internalType": "uint256",
              "name": "price",
              "type": "uint256"
            },
            {
              "internalType": "bool",
              "name": "minted",
              "type": "bool"
            }
          ],
          "internalType": "struct JustGemsIndex.Token[]",
          "name": "",
          "type": "tuple[]"
        }
      ],
      "stateMutability": "view",
      "type": "function"
    },
    {
      "inputs": [
        {
          "internalType": "uint256",
          "name": "fromTokenId",
          "type": "uint256"
        },
        {
          "internalType": "uint256",
          "name": "toTokenId",
          "type": "uint256"
        },
        {
          "internalType": "string[]",
          "name": "traits",
          "type": "string[]"
        },
        {
          "internalType": "string[]",
          "name": "values",
          "type": "string[]"
        }
      ],
      "name": "search",
      "outputs": [
        {
          "components": [
            {
              "internalType": "uint256",
              "name": "id",
              "type": "uint256"
            },
            {
              "internalType": "string",
              "name": "uri",
              "type": "string"
            },
            {
              "internalType": "uint256",
              "name": "price",
              "type": "uint256"
            },
            {
              "internalType": "bool",
              "name": "minted",
              "type": "bool"
            }
          ],
          "internalType": "struct JustGemsIndex.Token[]",
          "name": "",
          "type": "tuple[]"
        }
      ],
      "stateMutability": "view",
      "type": "function"
    },
    {
      "inputs": [
        {
          "internalType": "contract IERC20",
          "name": "token",
          "type": "address"
        },
        {
          "internalType": "uint256",
          "name": "fromTokenId",
          "type": "uint256"
        },
        {
          "internalType": "uint256",
          "name": "toTokenId",
          "type": "uint256"
        },
        {
          "internalType": "string[]",
          "name": "traits",
          "type": "string[]"
        },
        {
          "internalType": "string[]",
          "name": "values",
          "type": "string[]"
        }
      ],
      "name": "search",
      "outputs": [
        {
          "components": [
            {
              "internalType": "uint256",
              "name": "id",
              "type": "uint256"
            },
            {
              "internalType": "string",
              "name": "uri",
              "type": "string"
            },
            {
              "internalType": "uint256",
              "name": "price",
              "type": "uint256"
            },
            {
              "internalType": "bool",
              "name": "minted",
              "type": "bool"
            }
          ],
          "internalType": "struct JustGemsIndex.Token[]",
          "name": "",
          "type": "tuple[]"
        }
      ],
      "stateMutability": "view",
      "type": "function"
    },
    {
      "inputs": [
        {
          "internalType": "contract IERC721Data",
          "name": "metadata",
          "type": "address"
        }
      ],
      "name": "setMetadata",
      "outputs": [],
      "stateMutability": "nonpayable",
      "type": "function"
    },
    {
      "inputs": [
        {
          "internalType": "contract IERC721Saleable",
          "name": "saleable",
          "type": "address"
        }
      ],
      "name": "setSaleable",
      "outputs": [],
      "stateMutability": "nonpayable",
      "type": "function"
    },
    {
      "inputs": [
        {
          "internalType": "bytes4",
          "name": "interfaceId",
          "type": "bytes4"
        }
      ],
      "name": "supportsInterface",
      "outputs": [
        {
          "internalType": "bool",
          "name": "",
          "type": "bool"
        }
      ],
      "stateMutability": "view",
      "type": "function"
    }
  ],
  "bytecode": "0x60806040523480156200001157600080fd5b506040516200190a3803806200190a8339810160408190526200003491620000f8565b6200004160008262000048565b506200012a565b62000054828262000058565b5050565b6000828152602081815260408083206001600160a01b038516845290915290205460ff1662000054576000828152602081815260408083206001600160a01b03851684529091529020805460ff19166001179055620000b43390565b6001600160a01b0316816001600160a01b0316837f2f8788117e7eff1d82e926ec794901d17c78024a50270940304540a733656f0d60405160405180910390a45050565b6000602082840312156200010b57600080fd5b81516001600160a01b03811681146200012357600080fd5b9392505050565b6117d0806200013a6000396000f3fe608060405234801561001057600080fd5b50600436106100f55760003560e01c8063a217fddf11610097578063e18693c011610066578063e18693c01461020f578063e716b1b714610222578063f3cb838514610235578063f5bad0671461024857600080fd5b8063a217fddf146101c1578063a2420c68146101c9578063d547741f146101dc578063db487f36146101ef57600080fd5b806336568abe116100d357806336568abe1461016857806346c24c6f1461017b5780637e87ddd21461018e57806391d14854146101ae57600080fd5b806301ffc9a7146100fa578063248a9ca3146101225780632f2ff15d14610153575b600080fd5b61010d610108366004611059565b61025b565b60405190151581526020015b60405180910390f35b610145610130366004611083565b60009081526020819052604090206001015490565b604051908152602001610119565b6101666101613660046110b4565b610292565b005b6101666101763660046110b4565b6102bd565b6101666101893660046110e4565b610340565b6101a161019c3660046111c6565b61038e565b60405161011991906112ed565b61010d6101bc3660046110b4565b6103b2565b610145600081565b6101a16101d736600461134f565b6103db565b6101666101ea3660046110b4565b6103fd565b6102026101fd366004611083565b610423565b60405161011991906113c6565b6101a161021d366004611478565b6105ff565b6102026102303660046114e3565b6106f7565b6101666102433660046110e4565b6108dc565b6101a161025636600461150f565b61092a565b60006001600160e01b03198216637965db0b60e01b148061028c57506301ffc9a760e01b6001600160e01b03198316145b92915050565b6000828152602081905260409020600101546102ae8133610a24565b6102b88383610a88565b505050565b6001600160a01b03811633146103325760405162461bcd60e51b815260206004820152602f60248201527f416363657373436f6e74726f6c3a2063616e206f6e6c792072656e6f756e636560448201526e103937b632b9903337b91039b2b63360891b60648201526084015b60405180910390fd5b61033c8282610b0c565b5050565b7f850d585eb7f024ccee5e68e55f2c26cc72e1e6ee456acf62135757a5eb9d4a1061036b8133610a24565b50600280546001600160a01b0319166001600160a01b0392909216919091179055565b60606103a886868661039f87610b71565b61025687610b71565b9695505050505050565b6000918252602082815260408084206001600160a01b0393909316845291905290205460ff1690565b60606103f485856103eb86610b71565b61021d86610b71565b95945050505050565b6000828152602081905260409020600101546104198133610a24565b6102b88383610b0c565b61045060405180608001604052806000815260200160608152602001600081526020016000151581525090565b60408051608081018252838152600154915163c87b56dd60e01b815260048101859052909160208301916001600160a01b039091169063c87b56dd9060240160006040518083038186803b1580156104a757600080fd5b505afa1580156104bb573d6000803e3d6000fd5b505050506040513d6000823e601f3d908101601f191682016040526104e3919081019061158c565b815260025460405163b9186d7d60e01b8152600481018690526020909201916001600160a01b039091169063b9186d7d9060240160206040518083038186803b15801561052f57600080fd5b505afa158015610543573d6000803e3d6000fd5b505050506040513d601f19601f8201168201806040525081019061056791906115fa565b8152600254604051637dc0bf3f60e01b8152600481018690526020909201916000916001600160a01b031690637dc0bf3f9060240160206040518083038186803b1580156105b457600080fd5b505afa1580156105c8573d6000803e3d6000fd5b505050506040513d601f19601f820116820180604052508101906105ec9190611613565b6001600160a01b03161415905292915050565b6060600061060f86868686610bc8565b90506000815167ffffffffffffffff81111561062d5761062d611101565b60405190808252806020026020018201604052801561068b57816020015b61067860405180608001604052806000815260200160608152602001600081526020016000151581525090565b81526020019060019003908161064b5790505b50905060005b82518110156106ec576106bc8382815181106106af576106af611630565b6020026020010151610423565b8282815181106106ce576106ce611630565b602002602001018190525080806106e49061165c565b915050610691565b509695505050505050565b61072460405180608001604052806000815260200160608152602001600081526020016000151581525090565b60408051608081018252838152600154915163c87b56dd60e01b815260048101859052909160208301916001600160a01b039091169063c87b56dd9060240160006040518083038186803b15801561077b57600080fd5b505afa15801561078f573d6000803e3d6000fd5b505050506040513d6000823e601f3d908101601f191682016040526107b7919081019061158c565b815260025460405163fc3d545d60e01b81526001600160a01b038781166004830152602482018790526020909301929091169063fc3d545d9060440160206040518083038186803b15801561080b57600080fd5b505afa15801561081f573d6000803e3d6000fd5b505050506040513d601f19601f8201168201806040525081019061084391906115fa565b8152600254604051637dc0bf3f60e01b8152600481018690526020909201916000916001600160a01b031690637dc0bf3f9060240160206040518083038186803b15801561089057600080fd5b505afa1580156108a4573d6000803e3d6000fd5b505050506040513d601f19601f820116820180604052508101906108c89190611613565b6001600160a01b0316141590529392505050565b7f850d585eb7f024ccee5e68e55f2c26cc72e1e6ee456acf62135757a5eb9d4a106109078133610a24565b50600180546001600160a01b0319166001600160a01b0392909216919091179055565b6060600061093a86868686610bc8565b90506000815167ffffffffffffffff81111561095857610958611101565b6040519080825280602002602001820160405280156109b657816020015b6109a360405180608001604052806000815260200160608152602001600081526020016000151581525090565b8152602001906001900390816109765790505b50905060005b8251811015610a18576109e8898483815181106109db576109db611630565b60200260200101516106f7565b8282815181106109fa576109fa611630565b60200260200101819052508080610a109061165c565b9150506109bc565b50979650505050505050565b610a2e82826103b2565b61033c57610a46816001600160a01b03166014610d68565b610a51836020610d68565b604051602001610a62929190611677565b60408051601f198184030181529082905262461bcd60e51b8252610329916004016116ec565b610a9282826103b2565b61033c576000828152602081815260408083206001600160a01b03851684529091529020805460ff19166001179055610ac83390565b6001600160a01b0316816001600160a01b0316837f2f8788117e7eff1d82e926ec794901d17c78024a50270940304540a733656f0d60405160405180910390a45050565b610b1682826103b2565b1561033c576000828152602081815260408083206001600160a01b0385168085529252808320805460ff1916905551339285917ff6391f5c32d9c69d2a47ea670b442974b53935d1edc7fd64eb21e047a839171b9190a45050565b60408051600180825281830190925260609160009190816020015b6060815260200190600190039081610b8c5790505090508281600081518110610bb757610bb7611630565b602090810291909101015292915050565b60606000610bd886868686610f0b565b67ffffffffffffffff811115610bf057610bf0611101565b604051908082528060200260200182016040528015610c19578160200160208202803683370190505b5090506000865b868111610d5c576000805b8751811015610d145760015488516001600160a01b0390911690636d5ed10f9085908b9085908110610c5f57610c5f611630565b60200260200101518a8581518110610c7957610c79611630565b60200260200101516040518463ffffffff1660e01b8152600401610c9f939291906116ff565b60206040518083038186803b158015610cb757600080fd5b505afa158015610ccb573d6000803e3d6000fd5b505050506040513d601f19601f82011682018060405250810190610cef919061172a565b15610d025781610cfe8161165c565b9250505b80610d0c8161165c565b915050610c2b565b508651811415610d4957818484610d2a8161165c565b955081518110610d3c57610d3c611630565b6020026020010181815250505b5080610d548161165c565b915050610c20565b50909695505050505050565b60606000610d7783600261174c565b610d8290600261176b565b67ffffffffffffffff811115610d9a57610d9a611101565b6040519080825280601f01601f191660200182016040528015610dc4576020820181803683370190505b509050600360fc1b81600081518110610ddf57610ddf611630565b60200101906001600160f81b031916908160001a905350600f60fb1b81600181518110610e0e57610e0e611630565b60200101906001600160f81b031916908160001a9053506000610e3284600261174c565b610e3d90600161176b565b90505b6001811115610eb5576f181899199a1a9b1b9c1cb0b131b232b360811b85600f1660108110610e7157610e71611630565b1a60f81b828281518110610e8757610e87611630565b60200101906001600160f81b031916908160001a90535060049490941c93610eae81611783565b9050610e40565b508315610f045760405162461bcd60e51b815260206004820181905260248201527f537472696e67733a20686578206c656e67746820696e73756666696369656e746044820152606401610329565b9392505050565b60008151835114610f2f5760405163574b16a760e11b815260040160405180910390fd5b845b848111611050576000805b85518110156110255760015486516001600160a01b0390911690636d5ed10f908590899085908110610f7057610f70611630565b6020026020010151888581518110610f8a57610f8a611630565b60200260200101516040518463ffffffff1660e01b8152600401610fb0939291906116ff565b60206040518083038186803b158015610fc857600080fd5b505afa158015610fdc573d6000803e3d6000fd5b505050506040513d601f19601f82011682018060405250810190611000919061172a565b15611013578161100f8161165c565b9250505b8061101d8161165c565b915050610f3c565b50845181141561103d57826110398161165c565b9350505b50806110488161165c565b915050610f31565b50949350505050565b60006020828403121561106b57600080fd5b81356001600160e01b031981168114610f0457600080fd5b60006020828403121561109557600080fd5b5035919050565b6001600160a01b03811681146110b157600080fd5b50565b600080604083850312156110c757600080fd5b8235915060208301356110d98161109c565b809150509250929050565b6000602082840312156110f657600080fd5b8135610f048161109c565b634e487b7160e01b600052604160045260246000fd5b604051601f8201601f1916810167ffffffffffffffff8111828210171561114057611140611101565b604052919050565b600067ffffffffffffffff82111561116257611162611101565b50601f01601f191660200190565b600082601f83011261118157600080fd5b813561119461118f82611148565b611117565b8181528460208386010111156111a957600080fd5b816020850160208301376000918101602001919091529392505050565b600080600080600060a086880312156111de57600080fd5b85356111e98161109c565b94506020860135935060408601359250606086013567ffffffffffffffff8082111561121457600080fd5b61122089838a01611170565b9350608088013591508082111561123657600080fd5b5061124388828901611170565b9150509295509295909350565b60005b8381101561126b578181015183820152602001611253565b8381111561127a576000848401525b50505050565b60008151808452611298816020860160208601611250565b601f01601f19169290920160200192915050565b8051825260006020820151608060208501526112cb6080850182611280565b9050604083015160408501526060830151151560608501528091505092915050565b6000602080830181845280855180835260408601915060408160051b870101925083870160005b8281101561134257603f198886030184526113308583516112ac565b94509285019290850190600101611314565b5092979650505050505050565b6000806000806080858703121561136557600080fd5b8435935060208501359250604085013567ffffffffffffffff8082111561138b57600080fd5b61139788838901611170565b935060608701359150808211156113ad57600080fd5b506113ba87828801611170565b91505092959194509250565b602081526000610f0460208301846112ac565b600082601f8301126113ea57600080fd5b8135602067ffffffffffffffff8083111561140757611407611101565b8260051b611416838201611117565b938452858101830193838101908886111561143057600080fd5b84880192505b8583101561146c5782358481111561144e5760008081fd5b61145c8a87838c0101611170565b8352509184019190840190611436565b98975050505050505050565b6000806000806080858703121561148e57600080fd5b8435935060208501359250604085013567ffffffffffffffff808211156114b457600080fd5b6114c0888389016113d9565b935060608701359150808211156114d657600080fd5b506113ba878288016113d9565b600080604083850312156114f657600080fd5b82356115018161109c565b946020939093013593505050565b600080600080600060a0868803121561152757600080fd5b85356115328161109c565b94506020860135935060408601359250606086013567ffffffffffffffff8082111561155d57600080fd5b61156989838a016113d9565b9350608088013591508082111561157f57600080fd5b50611243888289016113d9565b60006020828403121561159e57600080fd5b815167ffffffffffffffff8111156115b557600080fd5b8201601f810184136115c657600080fd5b80516115d461118f82611148565b8181528560208385010111156115e957600080fd5b6103f4826020830160208601611250565b60006020828403121561160c57600080fd5b5051919050565b60006020828403121561162557600080fd5b8151610f048161109c565b634e487b7160e01b600052603260045260246000fd5b634e487b7160e01b600052601160045260246000fd5b600060001982141561167057611670611646565b5060010190565b7f416363657373436f6e74726f6c3a206163636f756e74200000000000000000008152600083516116af816017850160208801611250565b7001034b99036b4b9b9b4b733903937b6329607d1b60179184019182015283516116e0816028840160208801611250565b01602801949350505050565b602081526000610f046020830184611280565b8381526060602082015260006117186060830185611280565b82810360408401526103a88185611280565b60006020828403121561173c57600080fd5b81518015158114610f0457600080fd5b600081600019048311821515161561176657611766611646565b500290565b6000821982111561177e5761177e611646565b500190565b60008161179257611792611646565b50600019019056fea2646970667358221220ec41304d77176daff731b698593da20f8b00e6f4570cb536c02855eae05a0ae364736f6c63430008090033",
  "linkReferences": {},
  "deployedLinkReferences": {}
}