{
  "_format": "hh-sol-artifact-1",
  "contractName": "JustGemsSale",
  "sourceName": "contracts/JustGemsSale.sol",
  "abi": [
    {
      "inputs": [
        {
          "internalType": "contract IERC721Mintable",
          "name": "collection",
          "type": "address"
        },
        {
          "internalType": "address",
          "name": "admin",
          "type": "address"
        }
      ],
      "stateMutability": "nonpayable",
      "type": "constructor"
    },
    {
      "inputs": [],
      "name": "InvalidCall",
      "type": "error"
    },
    {
      "anonymous": false,
      "inputs": [
        {
          "indexed": true,
          "internalType": "bytes32",
          "name": "role",
          "type": "bytes32"
        },
        {
          "indexed": true,
          "internalType": "bytes32",
          "name": "previousAdminRole",
          "type": "bytes32"
        },
        {
          "indexed": true,
          "internalType": "bytes32",
          "name": "newAdminRole",
          "type": "bytes32"
        }
      ],
      "name": "RoleAdminChanged",
      "type": "event"
    },
    {
      "anonymous": false,
      "inputs": [
        {
          "indexed": true,
          "internalType": "bytes32",
          "name": "role",
          "type": "bytes32"
        },
        {
          "indexed": true,
          "internalType": "address",
          "name": "account",
          "type": "address"
        },
        {
          "indexed": true,
          "internalType": "address",
          "name": "sender",
          "type": "address"
        }
      ],
      "name": "RoleGranted",
      "type": "event"
    },
    {
      "anonymous": false,
      "inputs": [
        {
          "indexed": true,
          "internalType": "bytes32",
          "name": "role",
          "type": "bytes32"
        },
        {
          "indexed": true,
          "internalType": "address",
          "name": "account",
          "type": "address"
        },
        {
          "indexed": true,
          "internalType": "address",
          "name": "sender",
          "type": "address"
        }
      ],
      "name": "RoleRevoked",
      "type": "event"
    },
    {
      "inputs": [],
      "name": "COLLECTION",
      "outputs": [
        {
          "internalType": "contract IERC721Mintable",
          "name": "",
          "type": "address"
        }
      ],
      "stateMutability": "view",
      "type": "function"
    },
    {
      "inputs": [],
      "name": "DEFAULT_ADMIN_ROLE",
      "outputs": [
        {
          "internalType": "bytes32",
          "name": "",
          "type": "bytes32"
        }
      ],
      "stateMutability": "view",
      "type": "function"
    },
    {
      "inputs": [
        {
          "internalType": "bytes32",
          "name": "role",
          "type": "bytes32"
        }
      ],
      "name": "getRoleAdmin",
      "outputs": [
        {
          "internalType": "bytes32",
          "name": "",
          "type": "bytes32"
        }
      ],
      "stateMutability": "view",
      "type": "function"
    },
    {
      "inputs": [
        {
          "internalType": "bytes32",
          "name": "role",
          "type": "bytes32"
        },
        {
          "internalType": "address",
          "name": "account",
          "type": "address"
        }
      ],
      "name": "grantRole",
      "outputs": [],
      "stateMutability": "nonpayable",
      "type": "function"
    },
    {
      "inputs": [
        {
          "internalType": "bytes32",
          "name": "role",
          "type": "bytes32"
        },
        {
          "internalType": "address",
          "name": "account",
          "type": "address"
        }
      ],
      "name": "hasRole",
      "outputs": [
        {
          "internalType": "bool",
          "name": "",
          "type": "bool"
        }
      ],
      "stateMutability": "view",
      "type": "function"
    },
    {
      "inputs": [],
      "name": "lastTokenId",
      "outputs": [
        {
          "internalType": "uint256",
          "name": "",
          "type": "uint256"
        }
      ],
      "stateMutability": "view",
      "type": "function"
    },
    {
      "inputs": [
        {
          "internalType": "contract IERC20",
          "name": "token",
          "type": "address"
        },
        {
          "internalType": "uint256",
          "name": "tokenId",
          "type": "uint256"
        },
        {
          "internalType": "address",
          "name": "recipient",
          "type": "address"
        }
      ],
      "name": "mint",
      "outputs": [],
      "stateMutability": "nonpayable",
      "type": "function"
    },
    {
      "inputs": [
        {
          "internalType": "uint256",
          "name": "tokenId",
          "type": "uint256"
        },
        {
          "internalType": "address",
          "name": "recipient",
          "type": "address"
        }
      ],
      "name": "mint",
      "outputs": [],
      "stateMutability": "payable",
      "type": "function"
    },
    {
      "inputs": [
        {
          "internalType": "uint256",
          "name": "tokenId",
          "type": "uint256"
        }
      ],
      "name": "minted",
      "outputs": [
        {
          "internalType": "address",
          "name": "",
          "type": "address"
        }
      ],
      "stateMutability": "view",
      "type": "function"
    },
    {
      "inputs": [
        {
          "internalType": "uint256",
          "name": "tokenId",
          "type": "uint256"
        }
      ],
      "name": "priceOf",
      "outputs": [
        {
          "internalType": "uint256",
          "name": "",
          "type": "uint256"
        }
      ],
      "stateMutability": "view",
      "type": "function"
    },
    {
      "inputs": [
        {
          "internalType": "contract IERC20",
          "name": "token",
          "type": "address"
        },
        {
          "internalType": "uint256",
          "name": "tokenId",
          "type": "uint256"
        }
      ],
      "name": "priceOf",
      "outputs": [
        {
          "internalType": "uint256",
          "name": "",
          "type": "uint256"
        }
      ],
      "stateMutability": "view",
      "type": "function"
    },
    {
      "inputs": [
        {
          "internalType": "bytes32",
          "name": "role",
          "type": "bytes32"
        },
        {
          "internalType": "address",
          "name": "account",
          "type": "address"
        }
      ],
      "name": "renounceRole",
      "outputs": [],
      "stateMutability": "nonpayable",
      "type": "function"
    },
    {
      "inputs": [
        {
          "internalType": "bytes32",
          "name": "role",
          "type": "bytes32"
        },
        {
          "internalType": "address",
          "name": "account",
          "type": "address"
        }
      ],
      "name": "revokeRole",
      "outputs": [],
      "stateMutability": "nonpayable",
      "type": "function"
    },
    {
      "inputs": [
        {
          "internalType": "contract IERC20",
          "name": "token",
          "type": "address"
        },
        {
          "internalType": "uint256",
          "name": "tokenId",
          "type": "uint256"
        },
        {
          "internalType": "uint256",
          "name": "price",
          "type": "uint256"
        }
      ],
      "name": "setPrice",
      "outputs": [],
      "stateMutability": "nonpayable",
      "type": "function"
    },
    {
      "inputs": [
        {
          "internalType": "uint256",
          "name": "tokenId",
          "type": "uint256"
        },
        {
          "internalType": "uint256",
          "name": "price",
          "type": "uint256"
        }
      ],
      "name": "setPrice",
      "outputs": [],
      "stateMutability": "nonpayable",
      "type": "function"
    },
    {
      "inputs": [
        {
          "internalType": "bytes4",
          "name": "interfaceId",
          "type": "bytes4"
        }
      ],
      "name": "supportsInterface",
      "outputs": [
        {
          "internalType": "bool",
          "name": "",
          "type": "bool"
        }
      ],
      "stateMutability": "view",
      "type": "function"
    },
    {
      "inputs": [
        {
          "internalType": "address",
          "name": "recipient",
          "type": "address"
        }
      ],
      "name": "withdraw",
      "outputs": [],
      "stateMutability": "nonpayable",
      "type": "function"
    },
    {
      "inputs": [
        {
          "internalType": "contract IERC20",
          "name": "erc20",
          "type": "address"
        },
        {
          "internalType": "address",
          "name": "recipient",
          "type": "address"
        },
        {
          "internalType": "uint256",
          "name": "amount",
          "type": "uint256"
        }
      ],
      "name": "withdraw",
      "outputs": [],
      "stateMutability": "nonpayable",
      "type": "function"
    }
  ],
  "bytecode": "0x60a06040523480156200001157600080fd5b506040516200150a3803806200150a83398101604081905262000034916200010b565b600160009081556200004790826200005a565b506001600160a01b03166080526200014a565b6200006682826200006a565b5050565b60008281526001602090815260408083206001600160a01b038516845290915290205460ff16620000665760008281526001602081815260408084206001600160a01b0386168086529252808420805460ff19169093179092559051339285917f2f8788117e7eff1d82e926ec794901d17c78024a50270940304540a733656f0d9190a45050565b6001600160a01b03811681146200010857600080fd5b50565b600080604083850312156200011f57600080fd5b82516200012c81620000f2565b60208401519092506200013f81620000f2565b809150509250929050565b60805161139662000174600039600081816102360152818161051e01526107eb01526113966000f3fe6080604052600436106101095760003560e01c806391d1485411610095578063d547741f11610064578063d547741f1461031b578063d9caed121461033b578063f7d975771461035b578063f84ddf0b1461037b578063fc3d545d1461039057600080fd5b806391d14854146102a657806394bf804d146102c6578063a217fddf146102d9578063b9186d7d146102ee57600080fd5b80633011e16a116100dc5780633011e16a146101c457806336568abe146101e457806351cff8d914610204578063697b2365146102245780637dc0bf3f1461027057600080fd5b806301ffc9a71461010e5780630d4d151314610143578063248a9ca3146101655780632f2ff15d146101a4575b600080fd5b34801561011a57600080fd5b5061012e610129366004611010565b6103d2565b60405190151581526020015b60405180910390f35b34801561014f57600080fd5b5061016361015e366004611052565b610409565b005b34801561017157600080fd5b50610196610180366004611094565b6000908152600160208190526040909120015490565b60405190815260200161013a565b3480156101b057600080fd5b506101636101bf3660046110ad565b6105a9565b3480156101d057600080fd5b506101636101df3660046110dd565b6105d5565b3480156101f057600080fd5b506101636101ff3660046110ad565b61063b565b34801561021057600080fd5b5061016361021f366004611112565b6106be565b34801561023057600080fd5b506102587f000000000000000000000000000000000000000000000000000000000000000081565b6040516001600160a01b03909116815260200161013a565b34801561027c57600080fd5b5061025861028b366004611094565b6000908152600260205260409020546001600160a01b031690565b3480156102b257600080fd5b5061012e6102c13660046110ad565b610754565b6101636102d43660046110ad565b61077f565b3480156102e557600080fd5b50610196600081565b3480156102fa57600080fd5b50610196610309366004611094565b60009081526003602052604090205490565b34801561032757600080fd5b506101636103363660046110ad565b610875565b34801561034757600080fd5b5061016361035636600461112f565b61089c565b34801561036757600080fd5b50610163610376366004611170565b610935565b34801561038757600080fd5b50600554610196565b34801561039c57600080fd5b506101966103ab366004611192565b60009081526004602090815260408083206001600160a01b03949094168352929052205490565b60006001600160e01b03198216637965db0b60e01b148061040357506301ffc9a760e01b6001600160e01b03198316145b92915050565b60008281526004602090815260408083206001600160a01b03871684529091529020546104495760405163574b16a760e11b815260040160405180910390fd5b6001600160a01b0383166323b872dd3360008581526004602081815260408084206001600160a01b038b8116865292529283902054925160e086901b6001600160e01b03191681529316908301523060248301526044820152606401602060405180830381600087803b1580156104bf57600080fd5b505af11580156104d3573d6000803e3d6000fd5b505050506040513d601f19601f820116820180604052508101906104f791906111be565b506040516394bf804d60e01b8152600481018390526001600160a01b0382811660248301527f000000000000000000000000000000000000000000000000000000000000000016906394bf804d90604401600060405180830381600087803b15801561056257600080fd5b505af1158015610576573d6000803e3d6000fd5b5050506000928352506002602052604090912080546001600160a01b0319166001600160a01b0390921691909117905550565b600082815260016020819052604090912001546105c68133610982565b6105d083836109e6565b505050565b7f850d585eb7f024ccee5e68e55f2c26cc72e1e6ee456acf62135757a5eb9d4a106106008133610982565b60008381526004602090815260408083206001600160a01b038816845290915290208290556005548311156106355760058390555b50505050565b6001600160a01b03811633146106b05760405162461bcd60e51b815260206004820152602f60248201527f416363657373436f6e74726f6c3a2063616e206f6e6c792072656e6f756e636560448201526e103937b632b9903337b91039b2b63360891b60648201526084015b60405180910390fd5b6106ba8282610a51565b5050565b600260005414156107115760405162461bcd60e51b815260206004820152601f60248201527f5265656e7472616e637947756172643a207265656e7472616e742063616c6c0060448201526064016106a7565b60026000557f0914bb97ca83e85ef385857d9d418f187ff630589e0c9f44db92976d8e4519cb6107418133610982565b61074b8247610ab8565b50506001600055565b60009182526001602090815260408084206001600160a01b0393909316845291905290205460ff1690565b60008281526003602052604090205415806107a7575060008281526003602052604090205434105b156107c55760405163574b16a760e11b815260040160405180910390fd5b6040516394bf804d60e01b8152600481018390526001600160a01b0382811660248301527f000000000000000000000000000000000000000000000000000000000000000016906394bf804d90604401600060405180830381600087803b15801561082f57600080fd5b505af1158015610843573d6000803e3d6000fd5b5050506000928352506002602052604090912080546001600160a01b0319166001600160a01b03909216919091179055565b600082815260016020819052604090912001546108928133610982565b6105d08383610a51565b600260005414156108ef5760405162461bcd60e51b815260206004820152601f60248201527f5265656e7472616e637947756172643a207265656e7472616e742063616c6c0060448201526064016106a7565b60026000557f0914bb97ca83e85ef385857d9d418f187ff630589e0c9f44db92976d8e4519cb61091f8133610982565b61092a848484610bd1565b505060016000555050565b7f850d585eb7f024ccee5e68e55f2c26cc72e1e6ee456acf62135757a5eb9d4a106109608133610982565b60008381526003602052604090208290556005548311156105d0575050600555565b61098c8282610754565b6106ba576109a4816001600160a01b03166014610c23565b6109af836020610c23565b6040516020016109c092919061120c565b60408051601f198184030181529082905262461bcd60e51b82526106a791600401611281565b6109f08282610754565b6106ba5760008281526001602081815260408084206001600160a01b0386168086529252808420805460ff19169093179092559051339285917f2f8788117e7eff1d82e926ec794901d17c78024a50270940304540a733656f0d9190a45050565b610a5b8282610754565b156106ba5760008281526001602090815260408083206001600160a01b0385168085529252808320805460ff1916905551339285917ff6391f5c32d9c69d2a47ea670b442974b53935d1edc7fd64eb21e047a839171b9190a45050565b80471015610b085760405162461bcd60e51b815260206004820152601d60248201527f416464726573733a20696e73756666696369656e742062616c616e636500000060448201526064016106a7565b6000826001600160a01b03168260405160006040518083038185875af1925050503d8060008114610b55576040519150601f19603f3d011682016040523d82523d6000602084013e610b5a565b606091505b50509050806105d05760405162461bcd60e51b815260206004820152603a60248201527f416464726573733a20756e61626c6520746f2073656e642076616c75652c207260448201527f6563697069656e74206d6179206861766520726576657274656400000000000060648201526084016106a7565b604080516001600160a01b038416602482015260448082018490528251808303909101815260649091019091526020810180516001600160e01b031663a9059cbb60e01b1790526105d0908490610dc6565b60606000610c328360026112ca565b610c3d9060026112e9565b67ffffffffffffffff811115610c5557610c55611301565b6040519080825280601f01601f191660200182016040528015610c7f576020820181803683370190505b509050600360fc1b81600081518110610c9a57610c9a611317565b60200101906001600160f81b031916908160001a905350600f60fb1b81600181518110610cc957610cc9611317565b60200101906001600160f81b031916908160001a9053506000610ced8460026112ca565b610cf89060016112e9565b90505b6001811115610d70576f181899199a1a9b1b9c1cb0b131b232b360811b85600f1660108110610d2c57610d2c611317565b1a60f81b828281518110610d4257610d42611317565b60200101906001600160f81b031916908160001a90535060049490941c93610d698161132d565b9050610cfb565b508315610dbf5760405162461bcd60e51b815260206004820181905260248201527f537472696e67733a20686578206c656e67746820696e73756666696369656e7460448201526064016106a7565b9392505050565b6000610e1b826040518060400160405280602081526020017f5361666545524332303a206c6f772d6c6576656c2063616c6c206661696c6564815250856001600160a01b0316610e989092919063ffffffff16565b8051909150156105d05780806020019051810190610e3991906111be565b6105d05760405162461bcd60e51b815260206004820152602a60248201527f5361666545524332303a204552433230206f7065726174696f6e20646964206e6044820152691bdd081cdd58d8d9595960b21b60648201526084016106a7565b6060610ea78484600085610eaf565b949350505050565b606082471015610f105760405162461bcd60e51b815260206004820152602660248201527f416464726573733a20696e73756666696369656e742062616c616e636520666f6044820152651c8818d85b1b60d21b60648201526084016106a7565b843b610f5e5760405162461bcd60e51b815260206004820152601d60248201527f416464726573733a2063616c6c20746f206e6f6e2d636f6e747261637400000060448201526064016106a7565b600080866001600160a01b03168587604051610f7a9190611344565b60006040518083038185875af1925050503d8060008114610fb7576040519150601f19603f3d011682016040523d82523d6000602084013e610fbc565b606091505b5091509150610fcc828286610fd7565b979650505050505050565b60608315610fe6575081610dbf565b825115610ff65782518084602001fd5b8160405162461bcd60e51b81526004016106a79190611281565b60006020828403121561102257600080fd5b81356001600160e01b031981168114610dbf57600080fd5b6001600160a01b038116811461104f57600080fd5b50565b60008060006060848603121561106757600080fd5b83356110728161103a565b92506020840135915060408401356110898161103a565b809150509250925092565b6000602082840312156110a657600080fd5b5035919050565b600080604083850312156110c057600080fd5b8235915060208301356110d28161103a565b809150509250929050565b6000806000606084860312156110f257600080fd5b83356110fd8161103a565b95602085013595506040909401359392505050565b60006020828403121561112457600080fd5b8135610dbf8161103a565b60008060006060848603121561114457600080fd5b833561114f8161103a565b9250602084013561115f8161103a565b929592945050506040919091013590565b6000806040838503121561118357600080fd5b50508035926020909101359150565b600080604083850312156111a557600080fd5b82356111b08161103a565b946020939093013593505050565b6000602082840312156111d057600080fd5b81518015158114610dbf57600080fd5b60005b838110156111fb5781810151838201526020016111e3565b838111156106355750506000910152565b7f416363657373436f6e74726f6c3a206163636f756e74200000000000000000008152600083516112448160178501602088016111e0565b7001034b99036b4b9b9b4b733903937b6329607d1b60179184019182015283516112758160288401602088016111e0565b01602801949350505050565b60208152600082518060208401526112a08160408501602087016111e0565b601f01601f19169190910160400192915050565b634e487b7160e01b600052601160045260246000fd5b60008160001904831182151516156112e4576112e46112b4565b500290565b600082198211156112fc576112fc6112b4565b500190565b634e487b7160e01b600052604160045260246000fd5b634e487b7160e01b600052603260045260246000fd5b60008161133c5761133c6112b4565b506000190190565b600082516113568184602087016111e0565b919091019291505056fea2646970667358221220b47bd063c9ba9785c4c01cb449cdedbf8a0136ce725c7da80cd131364e3dbe7e64736f6c63430008090033",
  "linkReferences": {},
  "deployedLinkReferences": {}
}