{
  "_format": "hh-sol-artifact-1",
  "contractName": "JustGems",
  "sourceName": "contracts/JustGems.sol",
  "abi": [
    {
      "inputs": [
        {
          "internalType": "address",
          "name": "admin",
          "type": "address"
        }
      ],
      "stateMutability": "nonpayable",
      "type": "constructor"
    },
    {
      "anonymous": false,
      "inputs": [
        {
          "indexed": true,
          "internalType": "address",
          "name": "owner",
          "type": "address"
        },
        {
          "indexed": true,
          "internalType": "address",
          "name": "approved",
          "type": "address"
        },
        {
          "indexed": true,
          "internalType": "uint256",
          "name": "tokenId",
          "type": "uint256"
        }
      ],
      "name": "Approval",
      "type": "event"
    },
    {
      "anonymous": false,
      "inputs": [
        {
          "indexed": true,
          "internalType": "address",
          "name": "owner",
          "type": "address"
        },
        {
          "indexed": true,
          "internalType": "address",
          "name": "operator",
          "type": "address"
        },
        {
          "indexed": false,
          "internalType": "bool",
          "name": "approved",
          "type": "bool"
        }
      ],
      "name": "ApprovalForAll",
      "type": "event"
    },
    {
      "anonymous": false,
      "inputs": [
        {
          "indexed": true,
          "internalType": "address",
          "name": "previousOwner",
          "type": "address"
        },
        {
          "indexed": true,
          "internalType": "address",
          "name": "newOwner",
          "type": "address"
        }
      ],
      "name": "OwnershipTransferred",
      "type": "event"
    },
    {
      "anonymous": false,
      "inputs": [
        {
          "indexed": true,
          "internalType": "bytes32",
          "name": "role",
          "type": "bytes32"
        },
        {
          "indexed": true,
          "internalType": "bytes32",
          "name": "previousAdminRole",
          "type": "bytes32"
        },
        {
          "indexed": true,
          "internalType": "bytes32",
          "name": "newAdminRole",
          "type": "bytes32"
        }
      ],
      "name": "RoleAdminChanged",
      "type": "event"
    },
    {
      "anonymous": false,
      "inputs": [
        {
          "indexed": true,
          "internalType": "bytes32",
          "name": "role",
          "type": "bytes32"
        },
        {
          "indexed": true,
          "internalType": "address",
          "name": "account",
          "type": "address"
        },
        {
          "indexed": true,
          "internalType": "address",
          "name": "sender",
          "type": "address"
        }
      ],
      "name": "RoleGranted",
      "type": "event"
    },
    {
      "anonymous": false,
      "inputs": [
        {
          "indexed": true,
          "internalType": "bytes32",
          "name": "role",
          "type": "bytes32"
        },
        {
          "indexed": true,
          "internalType": "address",
          "name": "account",
          "type": "address"
        },
        {
          "indexed": true,
          "internalType": "address",
          "name": "sender",
          "type": "address"
        }
      ],
      "name": "RoleRevoked",
      "type": "event"
    },
    {
      "anonymous": false,
      "inputs": [
        {
          "indexed": true,
          "internalType": "address",
          "name": "from",
          "type": "address"
        },
        {
          "indexed": true,
          "internalType": "address",
          "name": "to",
          "type": "address"
        },
        {
          "indexed": true,
          "internalType": "uint256",
          "name": "tokenId",
          "type": "uint256"
        }
      ],
      "name": "Transfer",
      "type": "event"
    },
    {
      "inputs": [],
      "name": "DEFAULT_ADMIN_ROLE",
      "outputs": [
        {
          "internalType": "bytes32",
          "name": "",
          "type": "bytes32"
        }
      ],
      "stateMutability": "view",
      "type": "function"
    },
    {
      "inputs": [
        {
          "internalType": "address",
          "name": "to",
          "type": "address"
        },
        {
          "internalType": "uint256",
          "name": "tokenId",
          "type": "uint256"
        }
      ],
      "name": "approve",
      "outputs": [],
      "stateMutability": "nonpayable",
      "type": "function"
    },
    {
      "inputs": [
        {
          "internalType": "address",
          "name": "owner",
          "type": "address"
        }
      ],
      "name": "balanceOf",
      "outputs": [
        {
          "internalType": "uint256",
          "name": "",
          "type": "uint256"
        }
      ],
      "stateMutability": "view",
      "type": "function"
    },
    {
      "inputs": [
        {
          "internalType": "uint256",
          "name": "tokenId",
          "type": "uint256"
        }
      ],
      "name": "burn",
      "outputs": [],
      "stateMutability": "nonpayable",
      "type": "function"
    },
    {
      "inputs": [
        {
          "internalType": "uint256",
          "name": "tokenId",
          "type": "uint256"
        }
      ],
      "name": "getApproved",
      "outputs": [
        {
          "internalType": "address",
          "name": "",
          "type": "address"
        }
      ],
      "stateMutability": "view",
      "type": "function"
    },
    {
      "inputs": [
        {
          "internalType": "bytes32",
          "name": "role",
          "type": "bytes32"
        }
      ],
      "name": "getRoleAdmin",
      "outputs": [
        {
          "internalType": "bytes32",
          "name": "",
          "type": "bytes32"
        }
      ],
      "stateMutability": "view",
      "type": "function"
    },
    {
      "inputs": [
        {
          "internalType": "bytes32",
          "name": "role",
          "type": "bytes32"
        },
        {
          "internalType": "address",
          "name": "account",
          "type": "address"
        }
      ],
      "name": "grantRole",
      "outputs": [],
      "stateMutability": "nonpayable",
      "type": "function"
    },
    {
      "inputs": [
        {
          "internalType": "bytes32",
          "name": "role",
          "type": "bytes32"
        },
        {
          "internalType": "address",
          "name": "account",
          "type": "address"
        }
      ],
      "name": "hasRole",
      "outputs": [
        {
          "internalType": "bool",
          "name": "",
          "type": "bool"
        }
      ],
      "stateMutability": "view",
      "type": "function"
    },
    {
      "inputs": [
        {
          "internalType": "address",
          "name": "owner",
          "type": "address"
        },
        {
          "internalType": "address",
          "name": "operator",
          "type": "address"
        }
      ],
      "name": "isApprovedForAll",
      "outputs": [
        {
          "internalType": "bool",
          "name": "",
          "type": "bool"
        }
      ],
      "stateMutability": "view",
      "type": "function"
    },
    {
      "inputs": [],
      "name": "lastTokenId",
      "outputs": [
        {
          "internalType": "uint256",
          "name": "",
          "type": "uint256"
        }
      ],
      "stateMutability": "view",
      "type": "function"
    },
    {
      "inputs": [
        {
          "internalType": "uint256",
          "name": "tokenId",
          "type": "uint256"
        },
        {
          "internalType": "address",
          "name": "recipient",
          "type": "address"
        }
      ],
      "name": "mint",
      "outputs": [],
      "stateMutability": "nonpayable",
      "type": "function"
    },
    {
      "inputs": [],
      "name": "name",
      "outputs": [
        {
          "internalType": "string",
          "name": "",
          "type": "string"
        }
      ],
      "stateMutability": "view",
      "type": "function"
    },
    {
      "inputs": [],
      "name": "owner",
      "outputs": [
        {
          "internalType": "address",
          "name": "",
          "type": "address"
        }
      ],
      "stateMutability": "view",
      "type": "function"
    },
    {
      "inputs": [
        {
          "internalType": "uint256",
          "name": "tokenId",
          "type": "uint256"
        }
      ],
      "name": "ownerOf",
      "outputs": [
        {
          "internalType": "address",
          "name": "",
          "type": "address"
        }
      ],
      "stateMutability": "view",
      "type": "function"
    },
    {
      "inputs": [],
      "name": "renounceOwnership",
      "outputs": [],
      "stateMutability": "nonpayable",
      "type": "function"
    },
    {
      "inputs": [
        {
          "internalType": "bytes32",
          "name": "role",
          "type": "bytes32"
        },
        {
          "internalType": "address",
          "name": "account",
          "type": "address"
        }
      ],
      "name": "renounceRole",
      "outputs": [],
      "stateMutability": "nonpayable",
      "type": "function"
    },
    {
      "inputs": [
        {
          "internalType": "bytes32",
          "name": "role",
          "type": "bytes32"
        },
        {
          "internalType": "address",
          "name": "account",
          "type": "address"
        }
      ],
      "name": "revokeRole",
      "outputs": [],
      "stateMutability": "nonpayable",
      "type": "function"
    },
    {
      "inputs": [
        {
          "internalType": "address",
          "name": "from",
          "type": "address"
        },
        {
          "internalType": "address",
          "name": "to",
          "type": "address"
        },
        {
          "internalType": "uint256",
          "name": "tokenId",
          "type": "uint256"
        }
      ],
      "name": "safeTransferFrom",
      "outputs": [],
      "stateMutability": "nonpayable",
      "type": "function"
    },
    {
      "inputs": [
        {
          "internalType": "address",
          "name": "from",
          "type": "address"
        },
        {
          "internalType": "address",
          "name": "to",
          "type": "address"
        },
        {
          "internalType": "uint256",
          "name": "tokenId",
          "type": "uint256"
        },
        {
          "internalType": "bytes",
          "name": "_data",
          "type": "bytes"
        }
      ],
      "name": "safeTransferFrom",
      "outputs": [],
      "stateMutability": "nonpayable",
      "type": "function"
    },
    {
      "inputs": [
        {
          "internalType": "address",
          "name": "operator",
          "type": "address"
        },
        {
          "internalType": "bool",
          "name": "approved",
          "type": "bool"
        }
      ],
      "name": "setApprovalForAll",
      "outputs": [],
      "stateMutability": "nonpayable",
      "type": "function"
    },
    {
      "inputs": [
        {
          "internalType": "contract IERC721Data",
          "name": "metadata",
          "type": "address"
        }
      ],
      "name": "setMetadata",
      "outputs": [],
      "stateMutability": "nonpayable",
      "type": "function"
    },
    {
      "inputs": [
        {
          "internalType": "bytes4",
          "name": "interfaceId",
          "type": "bytes4"
        }
      ],
      "name": "supportsInterface",
      "outputs": [
        {
          "internalType": "bool",
          "name": "",
          "type": "bool"
        }
      ],
      "stateMutability": "view",
      "type": "function"
    },
    {
      "inputs": [],
      "name": "symbol",
      "outputs": [
        {
          "internalType": "string",
          "name": "",
          "type": "string"
        }
      ],
      "stateMutability": "view",
      "type": "function"
    },
    {
      "inputs": [
        {
          "internalType": "uint256",
          "name": "tokenId",
          "type": "uint256"
        }
      ],
      "name": "tokenURI",
      "outputs": [
        {
          "internalType": "string",
          "name": "",
          "type": "string"
        }
      ],
      "stateMutability": "view",
      "type": "function"
    },
    {
      "inputs": [],
      "name": "totalBurned",
      "outputs": [
        {
          "internalType": "uint256",
          "name": "",
          "type": "uint256"
        }
      ],
      "stateMutability": "view",
      "type": "function"
    },
    {
      "inputs": [],
      "name": "totalMinted",
      "outputs": [
        {
          "internalType": "uint256",
          "name": "",
          "type": "uint256"
        }
      ],
      "stateMutability": "view",
      "type": "function"
    },
    {
      "inputs": [],
      "name": "totalSupply",
      "outputs": [
        {
          "internalType": "uint256",
          "name": "",
          "type": "uint256"
        }
      ],
      "stateMutability": "view",
      "type": "function"
    },
    {
      "inputs": [
        {
          "internalType": "address",
          "name": "from",
          "type": "address"
        },
        {
          "internalType": "address",
          "name": "to",
          "type": "address"
        },
        {
          "internalType": "uint256",
          "name": "tokenId",
          "type": "uint256"
        }
      ],
      "name": "transferFrom",
      "outputs": [],
      "stateMutability": "nonpayable",
      "type": "function"
    },
    {
      "inputs": [
        {
          "internalType": "address",
          "name": "newOwner",
          "type": "address"
        }
      ],
      "name": "transferOwnership",
      "outputs": [],
      "stateMutability": "nonpayable",
      "type": "function"
    }
  ],
  "bytecode": "0x60806040523480156200001157600080fd5b5060405162001fc438038062001fc4833981016040819052620000349162000263565b604051806040016040528060098152602001684a7573742047656d7360b81b8152506040518060400160405280600481526020016347454d5360e01b8152506200008d62000087620000d160201b60201c565b620000d5565b8151620000a2906002906020850190620001bd565b508051620000b8906003906020840190620001bd565b50620000ca9150600090508262000125565b50620002d2565b3390565b600080546001600160a01b038381166001600160a01b0319831681178455604051919092169283917f8be0079c531659141344cd1fd0a4f28419497f9722a3daafe3b4186f6b6457e09190a35050565b62000131828262000135565b5050565b60008281526001602090815260408083206001600160a01b038516845290915290205460ff16620001315760008281526001602081815260408084206001600160a01b0386168086529252808420805460ff19169093179092559051339285917f2f8788117e7eff1d82e926ec794901d17c78024a50270940304540a733656f0d9190a45050565b828054620001cb9062000295565b90600052602060002090601f016020900481019282620001ef57600085556200023a565b82601f106200020a57805160ff19168380011785556200023a565b828001600101855582156200023a579182015b828111156200023a5782518255916020019190600101906200021d565b50620002489291506200024c565b5090565b5b808211156200024857600081556001016200024d565b6000602082840312156200027657600080fd5b81516001600160a01b03811681146200028e57600080fd5b9392505050565b600181811c90821680620002aa57607f821691505b60208210811415620002cc57634e487b7160e01b600052602260045260246000fd5b50919050565b611ce280620002e26000396000f3fe608060405234801561001057600080fd5b50600436106101cf5760003560e01c80638da5cb5b11610104578063b88d4fde116100a2578063e985e9c511610071578063e985e9c5146103bb578063f2fde38b146103f7578063f3cb83851461040a578063f84ddf0b1461041d57600080fd5b8063b88d4fde1461037a578063c87b56dd1461038d578063d547741f146103a0578063d89135cd146103b357600080fd5b806395d89b41116100de57806395d89b411461034f578063a217fddf14610357578063a22cb4651461035f578063a2309ff81461037257600080fd5b80638da5cb5b1461031857806391d148541461032957806394bf804d1461033c57600080fd5b80632f2ff15d1161017157806342966c681161014b57806342966c68146102d75780636352211e146102ea57806370a08231146102fd578063715018a61461031057600080fd5b80632f2ff15d1461029e57806336568abe146102b157806342842e0e146102c457600080fd5b8063095ea7b3116101ad578063095ea7b31461023c57806318160ddd1461025157806323b872dd14610267578063248a9ca31461027a57600080fd5b806301ffc9a7146101d457806306fdde03146101fc578063081812fc14610211575b600080fd5b6101e76101e23660046116ed565b610425565b60405190151581526020015b60405180910390f35b610204610436565b6040516101f39190611762565b61022461021f366004611775565b6104c8565b6040516001600160a01b0390911681526020016101f3565b61024f61024a3660046117a3565b610562565b005b610259610678565b6040519081526020016101f3565b61024f6102753660046117cf565b61068f565b610259610288366004611775565b6000908152600160208190526040909120015490565b61024f6102ac366004611810565b6106c0565b61024f6102bf366004611810565b6106e7565b61024f6102d23660046117cf565b610765565b61024f6102e5366004611775565b610780565b6102246102f8366004611775565b6107b4565b61025961030b366004611840565b61082b565b61024f6108b2565b6000546001600160a01b0316610224565b6101e7610337366004611810565b610918565b61024f61034a366004611810565b610943565b610204610999565b610259600081565b61024f61036d36600461185d565b6109a8565b600954610259565b61024f6103883660046118ff565b6109b3565b61020461039b366004611775565b6109eb565b61024f6103ae366004611810565b610a6c565b600a54610259565b6101e76103c93660046119ae565b6001600160a01b03918216600090815260076020908152604080832093909416825291909152205460ff1690565b61024f610405366004611840565b610a93565b61024f610418366004611840565b610b5e565b600b54610259565b600061043082610bac565b92915050565b606060028054610445906119dc565b80601f0160208091040260200160405190810160405280929190818152602001828054610471906119dc565b80156104be5780601f10610493576101008083540402835291602001916104be565b820191906000526020600020905b8154815290600101906020018083116104a157829003601f168201915b5050505050905090565b6000818152600460205260408120546001600160a01b03166105465760405162461bcd60e51b815260206004820152602c60248201527f4552433732313a20617070726f76656420717565727920666f72206e6f6e657860448201526b34b9ba32b73a103a37b5b2b760a11b60648201526084015b60405180910390fd5b506000908152600660205260409020546001600160a01b031690565b600061056d826107b4565b9050806001600160a01b0316836001600160a01b031614156105db5760405162461bcd60e51b815260206004820152602160248201527f4552433732313a20617070726f76616c20746f2063757272656e74206f776e656044820152603960f91b606482015260840161053d565b336001600160a01b03821614806105f757506105f781336103c9565b6106695760405162461bcd60e51b815260206004820152603860248201527f4552433732313a20617070726f76652063616c6c6572206973206e6f74206f7760448201527f6e6572206e6f7220617070726f76656420666f7220616c6c0000000000000000606482015260840161053d565b6106738383610bec565b505050565b6000600a5460095461068a9190611a2d565b905090565b6106993382610c5a565b6106b55760405162461bcd60e51b815260040161053d90611a44565b610673838383610d51565b600082815260016020819052604090912001546106dd8133610efc565b6106738383610f60565b6001600160a01b03811633146107575760405162461bcd60e51b815260206004820152602f60248201527f416363657373436f6e74726f6c3a2063616e206f6e6c792072656e6f756e636560448201526e103937b632b9903337b91039b2b63360891b606482015260840161053d565b6107618282610fcb565b5050565b610673838383604051806020016040528060008152506109b3565b7f3c11d16cbaffd01df69ce1c404f6340ee057498f5f00246190ea54220576a8486107ab8133610efc565b61076182611032565b6000818152600460205260408120546001600160a01b0316806104305760405162461bcd60e51b815260206004820152602960248201527f4552433732313a206f776e657220717565727920666f72206e6f6e657869737460448201526832b73a103a37b5b2b760b91b606482015260840161053d565b60006001600160a01b0382166108965760405162461bcd60e51b815260206004820152602a60248201527f4552433732313a2062616c616e636520717565727920666f7220746865207a65604482015269726f206164647265737360b01b606482015260840161053d565b506001600160a01b031660009081526005602052604090205490565b6000546001600160a01b0316331461090c5760405162461bcd60e51b815260206004820181905260248201527f4f776e61626c653a2063616c6c6572206973206e6f7420746865206f776e6572604482015260640161053d565b61091660006110d9565b565b60009182526001602090815260408084206001600160a01b0393909316845291905290205460ff1690565b7f9f2df0fed2c77648de5860a4cc508cd0818c85b8b8a1ab4ceeef8d981c8956a661096e8133610efc565b610988828460405180602001604052806000815250611129565b600b54831115610673575050600b55565b606060038054610445906119dc565b61076133838361115c565b6109bd3383610c5a565b6109d95760405162461bcd60e51b815260040161053d90611a44565b6109e58484848461122b565b50505050565b60085460405163c87b56dd60e01b8152600481018390526060916001600160a01b03169063c87b56dd9060240160006040518083038186803b158015610a3057600080fd5b505afa158015610a44573d6000803e3d6000fd5b505050506040513d6000823e601f3d908101601f191682016040526104309190810190611a95565b60008281526001602081905260409091200154610a898133610efc565b6106738383610fcb565b6000546001600160a01b03163314610aed5760405162461bcd60e51b815260206004820181905260248201527f4f776e61626c653a2063616c6c6572206973206e6f7420746865206f776e6572604482015260640161053d565b6001600160a01b038116610b525760405162461bcd60e51b815260206004820152602660248201527f4f776e61626c653a206e6577206f776e657220697320746865207a65726f206160448201526564647265737360d01b606482015260840161053d565b610b5b816110d9565b50565b7f850d585eb7f024ccee5e68e55f2c26cc72e1e6ee456acf62135757a5eb9d4a10610b898133610efc565b50600880546001600160a01b0319166001600160a01b0392909216919091179055565b60006001600160e01b031982166380ac58cd60e01b1480610bdd57506001600160e01b03198216635b5e139f60e01b145b8061043057506104308261125e565b600081815260066020526040902080546001600160a01b0319166001600160a01b0384169081179091558190610c21826107b4565b6001600160a01b03167f8c5be1e5ebec7d5bd14f71427d1e84f3dd0314c0f7b2291e5b200ac8c7c3b92560405160405180910390a45050565b6000818152600460205260408120546001600160a01b0316610cd35760405162461bcd60e51b815260206004820152602c60248201527f4552433732313a206f70657261746f7220717565727920666f72206e6f6e657860448201526b34b9ba32b73a103a37b5b2b760a11b606482015260840161053d565b6000610cde836107b4565b9050806001600160a01b0316846001600160a01b03161480610d195750836001600160a01b0316610d0e846104c8565b6001600160a01b0316145b80610d4957506001600160a01b0380821660009081526007602090815260408083209388168352929052205460ff165b949350505050565b826001600160a01b0316610d64826107b4565b6001600160a01b031614610dcc5760405162461bcd60e51b815260206004820152602960248201527f4552433732313a207472616e73666572206f6620746f6b656e2074686174206960448201526839903737ba1037bbb760b91b606482015260840161053d565b6001600160a01b038216610e2e5760405162461bcd60e51b8152602060048201526024808201527f4552433732313a207472616e7366657220746f20746865207a65726f206164646044820152637265737360e01b606482015260840161053d565b610e39838383611293565b610e44600082610bec565b6001600160a01b0383166000908152600560205260408120805460019290610e6d908490611a2d565b90915550506001600160a01b0382166000908152600560205260408120805460019290610e9b908490611b0c565b909155505060008181526004602052604080822080546001600160a01b0319166001600160a01b0386811691821790925591518493918716917fddf252ad1be2c89b69c2b068fc378daa952ba7f163c4a11628f55a4df523b3ef91a4505050565b610f068282610918565b61076157610f1e816001600160a01b031660146112d9565b610f298360206112d9565b604051602001610f3a929190611b24565b60408051601f198184030181529082905262461bcd60e51b825261053d91600401611762565b610f6a8282610918565b6107615760008281526001602081815260408084206001600160a01b0386168086529252808420805460ff19169093179092559051339285917f2f8788117e7eff1d82e926ec794901d17c78024a50270940304540a733656f0d9190a45050565b610fd58282610918565b156107615760008281526001602090815260408083206001600160a01b0385168085529252808320805460ff1916905551339285917ff6391f5c32d9c69d2a47ea670b442974b53935d1edc7fd64eb21e047a839171b9190a45050565b600061103d826107b4565b905061104b81600084611293565b611056600083610bec565b6001600160a01b038116600090815260056020526040812080546001929061107f908490611a2d565b909155505060008281526004602052604080822080546001600160a01b0319169055518391906001600160a01b038416907fddf252ad1be2c89b69c2b068fc378daa952ba7f163c4a11628f55a4df523b3ef908390a45050565b600080546001600160a01b038381166001600160a01b0319831681178455604051919092169283917f8be0079c531659141344cd1fd0a4f28419497f9722a3daafe3b4186f6b6457e09190a35050565b611133838361147c565b61114060008484846115ca565b6106735760405162461bcd60e51b815260040161053d90611b99565b816001600160a01b0316836001600160a01b031614156111be5760405162461bcd60e51b815260206004820152601960248201527f4552433732313a20617070726f766520746f2063616c6c657200000000000000604482015260640161053d565b6001600160a01b03838116600081815260076020908152604080832094871680845294825291829020805460ff191686151590811790915591519182527f17307eab39ab6107e8899845ad3d59bd9653f200f220920489ca2b5937696c31910160405180910390a3505050565b611236848484610d51565b611242848484846115ca565b6109e55760405162461bcd60e51b815260040161053d90611b99565b60006001600160e01b03198216637965db0b60e01b148061043057506301ffc9a760e01b6001600160e01b0319831614610430565b6001600160a01b0383166112bb57600980549060006112b183611beb565b9190505550505050565b6001600160a01b03821661067357600a80549060006112b183611beb565b606060006112e8836002611c06565b6112f3906002611b0c565b67ffffffffffffffff81111561130b5761130b611890565b6040519080825280601f01601f191660200182016040528015611335576020820181803683370190505b509050600360fc1b8160008151811061135057611350611c25565b60200101906001600160f81b031916908160001a905350600f60fb1b8160018151811061137f5761137f611c25565b60200101906001600160f81b031916908160001a90535060006113a3846002611c06565b6113ae906001611b0c565b90505b6001811115611426576f181899199a1a9b1b9c1cb0b131b232b360811b85600f16601081106113e2576113e2611c25565b1a60f81b8282815181106113f8576113f8611c25565b60200101906001600160f81b031916908160001a90535060049490941c9361141f81611c3b565b90506113b1565b5083156114755760405162461bcd60e51b815260206004820181905260248201527f537472696e67733a20686578206c656e67746820696e73756666696369656e74604482015260640161053d565b9392505050565b6001600160a01b0382166114d25760405162461bcd60e51b815260206004820181905260248201527f4552433732313a206d696e7420746f20746865207a65726f2061646472657373604482015260640161053d565b6000818152600460205260409020546001600160a01b0316156115375760405162461bcd60e51b815260206004820152601c60248201527f4552433732313a20746f6b656e20616c7265616479206d696e74656400000000604482015260640161053d565b61154360008383611293565b6001600160a01b038216600090815260056020526040812080546001929061156c908490611b0c565b909155505060008181526004602052604080822080546001600160a01b0319166001600160a01b03861690811790915590518392907fddf252ad1be2c89b69c2b068fc378daa952ba7f163c4a11628f55a4df523b3ef908290a45050565b60006001600160a01b0384163b156116cc57604051630a85bd0160e11b81526001600160a01b0385169063150b7a029061160e903390899088908890600401611c52565b602060405180830381600087803b15801561162857600080fd5b505af1925050508015611658575060408051601f3d908101601f1916820190925261165591810190611c8f565b60015b6116b2573d808015611686576040519150601f19603f3d011682016040523d82523d6000602084013e61168b565b606091505b5080516116aa5760405162461bcd60e51b815260040161053d90611b99565b805181602001fd5b6001600160e01b031916630a85bd0160e11b149050610d49565b506001949350505050565b6001600160e01b031981168114610b5b57600080fd5b6000602082840312156116ff57600080fd5b8135611475816116d7565b60005b8381101561172557818101518382015260200161170d565b838111156109e55750506000910152565b6000815180845261174e81602086016020860161170a565b601f01601f19169290920160200192915050565b6020815260006114756020830184611736565b60006020828403121561178757600080fd5b5035919050565b6001600160a01b0381168114610b5b57600080fd5b600080604083850312156117b657600080fd5b82356117c18161178e565b946020939093013593505050565b6000806000606084860312156117e457600080fd5b83356117ef8161178e565b925060208401356117ff8161178e565b929592945050506040919091013590565b6000806040838503121561182357600080fd5b8235915060208301356118358161178e565b809150509250929050565b60006020828403121561185257600080fd5b81356114758161178e565b6000806040838503121561187057600080fd5b823561187b8161178e565b91506020830135801515811461183557600080fd5b634e487b7160e01b600052604160045260246000fd5b604051601f8201601f1916810167ffffffffffffffff811182821017156118cf576118cf611890565b604052919050565b600067ffffffffffffffff8211156118f1576118f1611890565b50601f01601f191660200190565b6000806000806080858703121561191557600080fd5b84356119208161178e565b935060208501356119308161178e565b925060408501359150606085013567ffffffffffffffff81111561195357600080fd5b8501601f8101871361196457600080fd5b8035611977611972826118d7565b6118a6565b81815288602083850101111561198c57600080fd5b8160208401602083013760006020838301015280935050505092959194509250565b600080604083850312156119c157600080fd5b82356119cc8161178e565b915060208301356118358161178e565b600181811c908216806119f057607f821691505b60208210811415611a1157634e487b7160e01b600052602260045260246000fd5b50919050565b634e487b7160e01b600052601160045260246000fd5b600082821015611a3f57611a3f611a17565b500390565b60208082526031908201527f4552433732313a207472616e736665722063616c6c6572206973206e6f74206f6040820152701ddb995c881b9bdc88185c1c1c9bdd9959607a1b606082015260800190565b600060208284031215611aa757600080fd5b815167ffffffffffffffff811115611abe57600080fd5b8201601f81018413611acf57600080fd5b8051611add611972826118d7565b818152856020838501011115611af257600080fd5b611b0382602083016020860161170a565b95945050505050565b60008219821115611b1f57611b1f611a17565b500190565b7f416363657373436f6e74726f6c3a206163636f756e7420000000000000000000815260008351611b5c81601785016020880161170a565b7001034b99036b4b9b9b4b733903937b6329607d1b6017918401918201528351611b8d81602884016020880161170a565b01602801949350505050565b60208082526032908201527f4552433732313a207472616e7366657220746f206e6f6e20455243373231526560408201527131b2b4bb32b91034b6b83632b6b2b73a32b960711b606082015260800190565b6000600019821415611bff57611bff611a17565b5060010190565b6000816000190483118215151615611c2057611c20611a17565b500290565b634e487b7160e01b600052603260045260246000fd5b600081611c4a57611c4a611a17565b506000190190565b6001600160a01b0385811682528416602082015260408101839052608060608201819052600090611c8590830184611736565b9695505050505050565b600060208284031215611ca157600080fd5b8151611475816116d756fea2646970667358221220602dc0962e146ace7d88e338d584534b2956e093036cb36c09c9e2c713188d6a64736f6c63430008090033",
  "linkReferences": {},
  "deployedLinkReferences": {}
}